:020000040800F2
:10000000D04B00208D0100089501000897010008E1
:10001000990100089B0100089D01000800000000F4
:100020000000000000000000000000009F01000828
:10003000A101000800000000A3010008A5010008BC
:10004000A7010008A7010008A7010008A7010008F0
:10005000A7010008A7010008A7010008A7010008E0
:10006000A7010008A7010008A7010008A7010008D0
:10007000A7010008ED050008A7010008A701000876
:10008000A7010008A7010008A7010008A7010008B0
:10009000A7010008A7010008A7010008A7010008A0
:1000A000A7010008A7010008A7010008A701000890
:1000B000CD0A0008ED0A0008150B0008A70100088A
:1000C000A7010008A7010008A7010008A701000870
:1000D000A7010008A7010008A7010008A701000860
:1000E000A7010008A7010008A701000800F002F816
:1000F00000F03CF80AA090E8000C82448344AAF186
:100100000107DA4501D100F031F8AFF2090EBAE883
:100110000F0013F0010F18BFFB1A43F0010318473B
:10012000D8380000F8380000103A24BF78C878C1E9
:10013000FAD8520724BF30C830C144BF04680C60ED
:10014000704700000023002400250026103A28BF35
:1001500078C1FBD8520728BF30C148BF0B60704739
:100160001FB500F0B1F81FBD10B510BD00F039F992
:100170001146FFF7F5FF03F051FA00F057F903B409
:10018000FFF7F2FF03BC00F05BF90000094880476D
:1001900009480047FEE7FEE7FEE7FEE7FEE7FEE769
:1001A000FEE7FEE7FEE7FEE704480549054A064B81
:1001B000704700006D0A0008ED000008D0450020DF
:1001C000D04B0020D0470020D047002010B5431C62
:1001D00002E010F8011B71B18107FAD14FF0013232
:1001E00002C88C1A8C4314EAC211F9D0C01A0A064C
:1001F00003D0C01E10BDC01A10BD0A0401D0801E5D
:1002000010BD0902FCD0401E10BD032A40F2308010
:1002100010F0030C00F0158011F8013BBCF1020F47
:10022000624498BF11F801CB00F8013B38BF11F8C8
:10023000013BA2F1040298BF00F801CB38BF00F8DF
:10024000013B11F0030300F05180083AC0F0088030
:1002500051F8043B083A51F804CBA0E80810F5E740
:10026000121D5CBF51F8043B40F8043BAFF3008023
:10027000D20724BF11F8013B11F801CB48BF11F898
:10028000012B24BF00F8013B00F801CB48BF00F868
:10029000012B704701B5FFF7B8FF01BD01F0FF0367
:1002A000114601B543EA032242EA024200F052F845
:1002B00001BD02F0FF0343EA032242EA024200F0DA
:1002C00049B870477047704770B5064C7C44064D7E
:1002D0007D4403E0206820448047241DAC42F9D1CE
:1002E00070BD0000483700004837000010B5203AC4
:1002F000C0F00B80B1E81850203AA0E81850B1E8DF
:100300001850A0E81850BFF4F5AF5FEA027C24BF94
:10031000B1E81850A0E8185044BF18C918C0BDE88B
:1003200010405FEA827C24BF51F8043B40F8043B54
:1003300008BF7047D20728BF31F8023B48BF11F809
:10034000012B28BF20F8023B48BF00F8012B704763
:100350004FF000020429C0F0128010F0030C00F0EE
:100360001B80CCF1040CBCF1020F18BF00F8012B6C
:10037000A8BF20F8022BA1EB0C0100F00DB85FEA3A
:10038000C17C24BF00F8012B00F8012B48BF00F806
:10039000012B70474FF0000200B513469446964675
:1003A000203922BFA0E80C50A0E80C50B1F1200188
:1003B000BFF4F7AF090728BFA0E80C5048BF0CC036
:1003C0005DF804EB890028BF40F8042B08BF704794
:1003D00048BF20F8022B11F0804F18BF00F8012B06
:1003E0007047754600F032F8AE4605006946534640
:1003F00020F00700854618B020B5FFF7D5FEBDE810
:1004000020404FF000064FF000074FF000084FF07B
:10041000000B21F00701AC46ACE8C009ACE8C0090C
:10042000ACE8C009ACE8C0098D46704710B5044679
:10043000AFF300802046BDE81040FFF7A0BE0000EB
:1004400001491820ABBEFEE72600020000487047B5
:1004500070450020704721B1426842F480624260DA
:1004600003E0426822F480624260704721B18268F2
:1004700042F00102826003E0826822F001028260A1
:1004800070470A460021816821F4E04111438160F0
:100490007047014600208A6802F004020AB1012078
:1004A00000E00020704708B502460020009000924E
:1004B00001F12800009B184400900098006880B269
:1004C00008BD014600208A6802F008020AB1012036
:1004D00000E000207047000030B5024600200023F5
:1004E00050680F4C20400D790C6844EA05242043E5
:1004F000506090680B4C2040D1E902542C434D7958
:1005000044EA450420439060D06A20F470000C7CDB
:10051000641EE4B2234340EA0350D06230BD0000C1
:10052000FFFEF0FFFDF7F1FFF0B504461546002091
:1005300000220026092911DDE068A1F10A0707EB76
:10054000470C072707FA0CF29043A1F10A0707EBC3
:10055000470703FA07F21043E0600CE0206901EB63
:10056000410C072707FA0CF2904301EB410703FA0D
:1005700007F210432061A06BC0F30156EF1C06F197
:10058000010CA7EB0C0707EB870C1F2707FA0CF2EF
:100590009043EF1C06F1010CA7EB0C0707EB870754
:1005A00001FA07F21043A063F0BD10B50A4600211E
:1005B0000023816B21F44011531E41EA03518163F2
:1005C00010BD816841F008018160704721B18268E7
:1005D00042F40212826003E0826822F40212826016
:1005E0007047816841F004018160704710B50122B5
:1005F0000221074800F0DEF80021064800F01CF850
:100600004FF4007000F00AF801200349087010BD93
:1006100000080140300002400000002000F080513E
:1006200011B10349086001E00249486070470000C9
:10063000040402400000024021B1026842F00102BD
:10064000026004E002684FF6FE731A4002607047D1
:100650001AB103680B43036002E003688B43036035
:10066000704710B50022026847F6F0739A430C6A8F
:100670008B6823430C6923434C6923438C692343D0
:10068000CC6923434C6A23438C6A23431A43026098
:10069000CB6843600B6883604B68C36010BD2DE975
:1006A000F0410246002500260020002300240027F8
:1006B00091F803C00CF00F0591F803C00CF0100C7A
:1006C000BCF1000F03D091F802C04CEA050591F887
:1006D00000C0BCF1000F31D0146800202BE04FF0B7
:1006E000010C0CFA00F3B1F800C00CEA03069E42BC
:1006F00020D183004FF00F0C0CFA03F7BC4305FA2E
:1007000003FC4CEA040491F803C0BCF1280F06D1A5
:100710004FF0010C0CFA00FCC2F814C00AE091F88A
:1007200003C0BCF1480F05D14FF0010C0CFA00FCDE
:10073000C2F810C0401C0828D1D31460B1F800C022
:10074000BCF1FF0F34DD546800202EE000F1080CEE
:100750004FF0010808FA0CF3B1F800C00CEA0306E8
:100760009E4221D183004FF00F0C0CFA03F7BC43DB
:1007700005FA03FC4CEA040491F803C0BCF1280F0D
:1007800005D100F1080C08FA0CF8C2F8148091F8B1
:1007900003C0BCF1480F07D100F1080C4FF001086D
:1007A00008FA0CF8C2F81080401C0828CED3546018
:1007B000BDE8F0810AB1016100E0416170470000CD
:1007C00001460020034A506820F44040084350602E
:1007D000704700000010024029B1064A52690243E6
:1007E000044B5A6104E0034A52698243014B5A6147
:1007F000704700000010024029B1064AD269024346
:10080000044BDA6104E0034AD2698243014BDA61A6
:10081000704700000010024029B1064A9269024365
:10082000044B9A6104E0034A92698243014B9A6146
:10083000704700000010024030B500210022002463
:1008400000232D4D6D6805F00C0121B1042905D060
:10085000082923D105E0294D056022E0274D0560D8
:100860001FE0254D6D6805F47012234D6D6805F489
:100870008034022505EB92421CB9214D5543056099
:100880000BE01D4D6D6805F400351DB11C4D554341
:10089000056002E0194D5543056002E0174D056003
:1008A00000BF00BF144D6D6805F0F0010909154D3A
:1008B0006B5C0568DD4045600F4D6D6805F4E061D7
:1008C000090A104D6B5C4568DD4085600A4D6D6816
:1008D00005F46051C90A0B4D6B5C4568DD40C5608D
:1008E000054D6D6805F44041890B074D6B5CC5688B
:1008F000B5FBF3F5056130BD0010024000127A002F
:1009000000093D00580000206800002021B1028845
:1009100042F04002028004E002884FF6BF731A40A2
:10092000028070471AB183880B43838002E083887A
:100930008B43838070470246002013890B400BB124
:10094000012000E00020704710B50022028802F468
:1009500041520B884C8823438C882343CC88234303
:100960000C8923434C8923438C892343CC8923431B
:100970001A430280838B4FF2FF74234083830B8AD8
:10098000038210BD10B500F001F810BD0CB50020B9
:10099000019000903348006840F48030314908608D
:1009A00000BF3048006800F4003000900198401CFF
:1009B0000190009818B90198B0F5A06FF1D12948BD
:1009C000006800F4003010B10120009001E0002028
:1009D00000900098012843D12348006840F010009F
:1009E000214908600846006820F0030008600846B6
:1009F000006840F0020008601A48406819494860E1
:100A00000846406848600846406840F48060486096
:100A10000846406820F47C1048600846406840F46E
:100A2000641048600846006840F08070086000BFAD
:100A30000C48006800F000700028F9D009484068B0
:100A400020F00300074948600846406840F0020073
:100A5000486000BF0348406800F00C000828F9D146
:100A60000CBD0000001002400020024010B51348E9
:100A7000006840F0010011490860084640681049CC
:100A800008400E494860084600680E4908400B4976
:100A900008600846006820F4802008600846406826
:100AA00020F4FE0048604FF41F008860FFF76AFFE3
:100AB0004FF000600449086010BD000000100240C3
:100AC0000000FFF8FFFFF6FE08ED00E04FF0804069
:100AD000008A20F001004FF080410882024800683F
:100AE000401C014908607047180000200648008833
:100AF00020F0010004490880044800880449088067
:100B000000200249088070471004004002000020C5
:100B1000040000200448008820F0010002490880F9
:100B200001200249087070471008004006000020AC
:100B300070B588B006460C460D480068A8B101A9FA
:100B4000304600F09BF80546681C10B9002008B03C
:100B500070BD656000206081208120612076019851
:100B6000E060002060610120F1E70020EFE7000075
:100B70003400002001460B480068425C09480368C5
:100B8000481C185C02EB002206480368881C185CAD
:100B900002EB004203480368C81C185C02EB0060CB
:100BA00070470000340000200020014908607047B1
:100BB0001800002004E002F0CFFC024801F04AFBDC
:100BC000F9E700001C00002002461078562817D1D3
:100BD0005078452814D19078452811D1D0785828DC
:100BE0000ED1D2E904301844884201D90020704760
:100BF000D068B0F5804F01D90020F8E70120F6E772
:100C00000020F4E710B502460B46002119E00E481B
:100C1000006940F002000C4C2061501860612046D1
:100C2000006940F04000206100BF00F01DF800287E
:100C3000FBD00548006920F00200034C206101F55B
:100C400080619942E3D310BD0020024000BF011E25
:100C5000A0F10100FBD1704710B5024801F0FAFA8B
:100C600010BD00001C0000200348C06800F0010017
:100C700080F0010070470000002002402DE9F04F95
:100C80008DB005460F460026701E00904A48006849
:100C9000002870D028782F2805D102200090012646
:100CA0004648D0F800A081E04FF0000809E0A85DB8
:100CB00005A901F80800701C06B208F101000FFA3E
:100CC00080F8A85D10B1A85D2F28F0D1002005A9FB
:100CD00001F8080005A8FFF779FA002864D04FF062
:100CE0000009002448E00AEB090000F06BF83248E4
:100CF0000068005DE52831D02F480068005D0528B8
:100D00002CD02D480068005D2E2827D02A48016885
:100D100004F10B00085C0F2820D027480068005D14
:100D200020B94FF0FF300DB0BDE8F08F22490968BF
:100D3000081901A900F0BEFB05A901A800F010FCEC
:100D400060B104F11A0001F091F9834604F1140036
:100D500001F08CF90BEB004000900EE02034B4F56C
:100D6000007F09D3002409F1010915480078814565
:100D700002D3601ED7E71DE0B5E700BFA85D2F28AE
:100D800006D101E0701C06B2A85D2F28FAD007E05A
:100D9000A85D28B927B104F11C00FFF7EBFE38600D
:100DA00000208DF8140001E00098BCE7A85D002841
:100DB0007FF47AAF0098B6E734000020540000209A
:100DC0004000002070B504462148006800283CD04F
:100DD00020480068844238D01E4804601C480668D9
:100DE00000252146112000F0F3F808B1002070BD65
:100DF0004FF08050184908600CE02846691C8DB2FD
:100E00004FF6FE71884205DD4FF4805012490860AC
:100E10000020ECE700F030FFFE28EED1002505E0D1
:100E200000F02AFF06F8010B681C85B2B5F5007FBB
:100E3000F6DB00F021FF00F01FFF00F01DFF4FF474
:100E40008050054908600120D1E70020CFE700006D
:100E5000340000203C000020100C014000B58BB095
:100E600001210420FFF7D8FC01210820FFF7D4FC62
:100E700001211020FFF7D0FC01214802FFF7CCFC34
:100E800001218802FFF7C8FC4FF44040FFF798FCAF
:100E900003208DF82A0010208DF82B004FF4085005
:100EA000ADF828000AA94148FFF7F9FB03208DF8A7
:100EB0002A0048208DF82B004FF47C70ADF82800F4
:100EC0000AA93B48FFF7EBFB0020059001208DF8B5
:100ED00018008DF819004FF460200790002008904A
:100EE00002208DF8240005A93248FFF7F5FA022107
:100EF0003048FFF75AFB01231A4608212D48FFF717
:100F000013FB0123022209212A48FFF70DFB4FF4AE
:100F1000E0412848FFF7B5FA01212648FFF7A6FA75
:100F20002448FFF74EFB00BF2248FFF7CAFA00280B
:100F3000FAD12048FFF755FB00BF1E48FFF7A9FA7A
:100F40000028FAD101211B48FFF785FA0121194831
:100F5000FFF73CFB6846FFF76FFC01210846FFF7EF
:100F60004BFC42F210710098B0FBF1F0401E890674
:100F700008850A2088854007808940F00100888123
:100F80000846008840F0010008801C20002809DB8A
:100F900000F01F02012191404209920002F1E0227B
:100FA000C2F8001100BF01200BB000BD00100140CD
:100FB000000C0140002401400248034948600348F6
:100FC000486070472301674500200240AB89EFCDA0
:100FD00070B502460B4600262848007820B9112A31
:100FE00001D0182A00D15B024FF0805024490860DC
:100FF00042F0400000F046FE180E00F043FEC3F33E
:10100000074000F03FFEC3F3072000F03BFED8B2DC
:1010100000F038FE082A03D1872000F033FE02E0FA
:10102000952000F02FFE05E03046711CCEB2FE2860
:1010300000DD04E000F020FE0446FF28F4D000BFED
:10104000A4B93A2A12D100F017FE054605F0400077
:1010500018B101200949087002E000200749087012
:1010600000F00AFE00F008FE00F006FE00F004FEAC
:101070004FF4805002490860204670BD38000020BF
:10108000100C01402DE9F0470746894614461D46DD
:10109000A9F10109B9F10D0F02DA0020BDE8F087CE
:1010A00046480068002875D02068401C0028FAD007
:1010B00080E0E688E0882030E080E088B0F5007FBE
:1010C0000EDB0020E080A088401CA080A0883C4966
:1010D0000978884204DB4FF0FF3020600020DDE714
:1010E000206800F089F8A18800EB010A5046FFF75C
:1010F00069FE32480068805D00B95BE02F480068F7
:10110000805DE52800D155E02C48016806F10B0010
:10111000085C0F284DD0294909688819394600F024
:10112000C9F93846FFF752F800F0FF0806F11C0035
:10113000FFF720FD286006F1140000F097FF2883D8
:101140000020287406F10B0000F088FF00F0020078
:1011500018B1287C40F00100287406F10B0000F063
:101160007DFF00F0040018B1287C40F003002874D3
:10117000A8F10300385C56280DD1A8F10200385CB4
:10118000452808D1A8F10100385C582803D1012076
:1011900068740CE00FE006F10B0000F05FFF00F058
:1011A000100010B10220687401E000206874012072
:1011B00074E700BF7DE7002070E7000034000020E6
:1011C0004000002070B504462046E11704EB516151
:1011D000CD11E11704EB5161C911A4EBC1118E00CF
:1011E000044909684819FFF7EDFD3046FFF7C2FCD6
:1011F00070BD0000480000200146881E034A127896
:10120000034B1B6800FB02307047000040000020C9
:1012100054000020002809DB00F01F02012191404A
:101220004209920002F1E022C2F80011704700006A
:101230002DE9F04F93B080480668804D1C2231465E
:1012400007A8FEF7E2FF1C364FF4C04107A8FFF7DE
:10125000BBFC18B9002013B0BDE8F08FFFF7ACFE5F
:101260004FF4C04176480068FFF7CCFC74490B98F6
:1012700009684718DFE03068059070680690083606
:101280009DF8140000287DD003287CD004287BD052
:1012900006287AD100200090A4E01022314601A84F
:1012A000FEF7B3FF1036DDE902010144049801EBBB
:1012B0000019DDF810B04A4631462846FEF7A5FF72
:1012C0004E444FF000087FE00298284403990844F8
:1012D00000EB0814A088012806D002285DD003285E
:1012E00060D0042864D100E000BFE079012804D078
:1012F00054A002F0DFF80020ADE7A079012840D12A
:10130000A088012806D14E49E06809680844401CBD
:1013100011900FE002982844A16808441290129896
:1013200000F018FA1190119820B949A002F0C2F803
:10133000002090E742490198096808442168084460
:101340000E9011990E98081A001FC0F3160A4FEA62
:101350001A301090CAF34A000F902068285A00F4FF
:1013600078411098084400B2216868522068801CB7
:10137000285A00F478410F98084401B22068801C74
:10138000295203E044E03BE032E049E0A07918B99B
:10139000E06838442168685013E0E0683844216808
:1013A00068500EE02C49E06808442168685008E065
:1013B0002AA002F07FF8A088002102F055F8002052
:1013C00049E700BF08F10108D845FFF47DAF1C4B89
:1013D000DDE901021B68C118284600F0F9FD0098FC
:1013E000401C00900699009881423FF656AF21E0DC
:1013F00039463046069A00F0EBFD0698064419E09F
:1014000031461548069AFEF700FF0698064411E09B
:101410000B490D98096808441249086001201AE731
:1014200011A002F047F89DF81400002102F01CF80A
:10143000002010E700BF1EE72400002070250020D8
:1014400028000020577220626E64207372630000CF
:10145000556E6B20636D640070050020556E6B2027
:1014600074700A002C000020556E6B20626C207492
:10147000700A0000024908680021014A11607047A3
:101480001800002010B514210348FFF70CF8A0F550
:10149000006000B210BD00000024014010B518210A
:1014A0000348FFF700F8A0F5006000B210BD00008F
:1014B0000024014010B502460020002304E0D45C63
:1014C0000C54441CE0B25B1C082BF8DB05E0431E07
:1014D000D8B20B5C202B00D001E00028F7DC00BF65
:1014E000431CD8B2137A202B1AD02E230B54431C42
:1014F000D8B2002306E003F10804145D0C54441C28
:10150000E0B25B1C032BF6DB05E0431ED8B20B5C9C
:10151000202B00D001E00028F7DC00BF431CD8B22C
:1015200000230B5410BD024605E0107808B90120D5
:101530007047521C491C10780B789842F5D0002057
:10154000F6E770B504460D462946204600F032FC09
:1015500020B100F02DFB08B1012070BD0020FCE798
:1015600010B502460B4605E0107808B9012010BD01
:10157000521C5B1C107800F09FFB0446187800F0AA
:101580009BFB8442F0D00020F1E72DE9F0410446B6
:101590000D46271E00DA6442002600BF0A2094FB95
:1015A000F0F100FB11403030C2B23046761C2A54B4
:1015B0000A2094FBF0F0041EF0DC002F03DA2D2249
:1015C0003046761C2A540020A855284600F0D9FA47
:1015D000BDE8F0812DE9F04304460E4615464FF074
:1015E00000086068FFF708FE8146374636E0E1688C
:1015F0006069884200D333E06069401C60612189E2
:1016000001EB0900FFF7DEFB608917490968085CF8
:1016100038707F1C6089401C60816089B0F5007F54
:101620001BDB002060812089401C208120890F491C
:101630000978884211DB002020816068FFF7C2FD35
:1016400060606FF070416068884202DB0020E060FB
:1016500006E06068FFF7D0FD81466D1E002DC6D103
:1016600000BF4046BDE8F083340000204000002069
:1016700002460020704700002DE9F04102270024B7
:1016800000F0A2FA002504E0FF2000F0FBFA681C3D
:10169000C5B2142DF8DB4FF080502C49086007E0EC
:1016A0002046611C8CB2202802DD0120BDE8F081BB
:1016B00000210846FFF78CFC0128F1D100032349E3
:1016C0000860FF2000F0DEFAFF2000F0DBFA0024C3
:1016D00006E02046611C8CB2FE2801DD012706E0F1
:1016E0004FF4D5710820FFF773FC0128F1D100BF3A
:1016F000002400BF00213720FFF76AFC06464FF0A8
:1017000080412920FFF764FC0646601C84B240F645
:10171000FE70844201DD0120C8E7002EEAD10024DA
:1017200000200B490870022F0DD105E02046611CF6
:101730008CB2FE2800DD05E000213A20FFF748FCCE
:101740000028F3D100BF0020B0E70000100C0140DA
:101750003800002010B5044621466DA0FFF7E3FED7
:1017600008B16F4810BD21466EA0FFF7DCFE08B13E
:101770007048F7E7214670A0FFF7D5FE08B173481F
:10178000F0E7214672A0FFF7CEFE08B17548E9E701
:10179000214675A0FFF7C7FE08B17948E2E7214668
:1017A00078A0FFF7C0FE08B17D48DBE721467DA0A9
:1017B000FFF7B9FE08B18148D4E7214680A0FFF7C2
:1017C000B2FE08B18248CDE7214682A0FFF7ABFE0A
:1017D00008B18248C6E7214681A0FFF7A4FE08B100
:1017E0008248BFE7214682A0FFF79DFE08B18348EB
:1017F000B8E7214682A0FFF796FE08B18448B1E71A
:10180000214684A0FFF78FFE08B18548AAE721464C
:1018100084A0FFF788FE08B18548A3E7214685A08C
:10182000FFF781FE08B186489CE7214685A0FFF7B7
:101830007AFE08B1864895E7214686A0FFF773FE39
:1018400008B187488EE7214686A0FFF76CFE08B1F5
:10185000894887E7214689A0FFF765FE08B18B48D4
:1018600080E721468AA0FFF75EFE08B18B4879E742
:1018700021468BA0FFF757FE08B18C4872E721463E
:101880008BA0FFF750FE08B18C486BE721468CA077
:10189000FFF749FE08B18D4864E721468CA0FFF7A9
:1018A00042FE08B190485DE7214690A0FFF73BFE5D
:1018B00008B1924856E7214691A0FFF734FE08B1DF
:1018C00091484FE7214691A0FFF72DFE08B19148BE
:1018D00048E7214690A0FFF726FE08B1914841E76E
:1018E000214691A0FFF71FFE08B192483AE7214632
:1018F00091A0FFF718FE08B1924833E7214692A065
:10190000FFF711FE08B192482CE700202AE70000FB
:10191000632E645365744C696E65436C6561720037
:1019200059290008632E6453657446696C6C436FD3
:101930006C6F72003D290008632E64536574537008
:10194000726974654D656D6F72790000692A0008CF
:10195000632E64446973706C617953707269746545
:101960000000000065290008632E64446973706CF0
:1019700061795370726974654269744D61736B006B
:10198000252C0008632E64446973706C6179537070
:1019900072697465427974654D61736B0000000073
:1019A0005D2D0008632E64446973706C6179537017
:1019B000726974654D61747269780000992A000833
:1019C000632E64446973706C6179546578740000A7
:1019D000E5270008632E6453796E6300590C0008F4
:1019E000632E64476574465053000000551B000881
:1019F000632E64536574465053000000651B000855
:101A0000632E6453657450616C65747465000000E6
:101A100031290008632E6947657453746174650049
:101A2000DD280008632E69476574584178697300A2
:101A3000FD280008632E6947657459417869730071
:101A400017290008632E6673496E69740000000050
:101A5000D11C0008632E667352656164446972008C
:101A600029200008632E6673526561644E657874A0
:101A700046696C650000000085100008632E6673DF
:101A80005265616446696C6500000000310B000816
:101A9000632E66735265616400000000D51500086E
:101AA000632E66735365656B0000000071160008B5
:101AB000632E6673436C6F7365000000791B00082A
:101AC000632E7447657454696D657200A91D000822
:101AD000632E7447657454696D6572576974684301
:101AE0006C6561720000000075140008632E744379
:101AF0006C65617254696D6572000000A90B000885
:101B0000632E68436D70000027150008632E684936
:101B1000746F61008B150008632E6D656D736574BD
:101B2000000000009D020008632E6D656D637079F2
:101B30000000000095020008632E7374726C656EDD
:101B400000000000CD010008632E7352756E000086
:101B50004315000810B5024800F090FD10BD0000CC
:101B60001C00002010B504462146024800F09DFDEF
:101B700010BD00001C00002001460020C8600120AC
:101B800070472DE9F041044600252046FEF71EFB74
:101B9000401E86B207E0675DA05D6055A755681CD2
:101BA00085B2701E86B2B542F5DBBDE8F08100005B
:101BB00070B504480068441C2646B04705462846D0
:101BC00070BD00002C00002000B587B00121880303
:101BD000FEF712FE01210820FEF71EFE03208DF8FD
:101BE0001A0010208DF81B000002ADF8180006A99D
:101BF0001F48FEF754FD03208DF81A0018208DF8B9
:101C00001B004FF42040ADF8180006A91848FEF755
:101C100046FD03208DF81A0048208DF81B004FF474
:101C20008040ADF8180006A91148FEF738FD0020E5
:101C3000ADF804004FF48270ADF806000020ADF856
:101C40000800ADF80A00ADF80C004FF40070ADF8D4
:101C50000E000020ADF81000ADF8120001A90548F3
:101C6000FEF772FE01210348FEF750FE07B000BDEB
:101C7000000C01400038004000B5FF2000F002F8E1
:101C800000BD0000014600BF0A48008800F00200C5
:101C90000028F9D00748001D018000BF05480088D2
:101CA00000F001000028F9D00248001D0088C0B2F1
:101CB00070470000083800400146612904DB7A299A
:101CC00002DCA1F1200000E00846C0B2704700002D
:101CD00070B50546FFF7D0FC2A4908700846007821
:101CE00000284DD1284805600020FFF76BF808B99F
:101CF000002070BD4FF4FF7000F0B8F94AF655218E
:101D0000884201D00020F4E74FF4E37000F0AEF910
:101D100004462046FFF756F808B90020E9E70D20F1
:101D200000F09CF9194908700C2000F097F9184947
:101D300008702420FEF71EFF164908600E2000F0F0
:101D400095F920441449086008460068114909685B
:101D50000F4A127801FB0200104908602C20FEF7A0
:101D600009FF0F49086008460068801E0749097886
:101D70000A4A126800FB01200A4908600120B8E7FE
:101D80000020B6E739000020340000204000002089
:101D90004100002044000020480000204C000020AA
:101DA00050000020540000200148006870470000E7
:101DB000180000202DE9F34F9BB00D4613A91B9886
:101DC000FEF7B6FE00287CD01C220CA913A8FFF752
:101DD00001FC4FF440410CA8FEF7F6FE0028F2D0BB
:101DE000FFF7EAF84FF440416F480068FEF70AFF3A
:101DF0006D491098096800EB0108D2E008220AA991
:101E000013A8FFF7E7FB9DF8280000287ED00328E1
:101E10007DD004287CD006287BD10020019098E05A
:101E2000102206A913A8FFF7D5FBDDE9070101443D
:101E3000099801EB0019DDF824A04A46294613A8A9
:101E4000FFF7C8FB002677E0079828440899084464
:101E500000EB0614A088012806D002285CD00328D5
:101E60005FD0042863D100E000BFE079012802D0F0
:101E70004EA000F009F9A079012841D1A0880128DD
:101E800006D14949E0680968084400F1010B0FE0F8
:101E900007982844A168084402900298FFF75AFC6A
:101EA0008346BBF1000F02D143A000F0EDF800BF64
:101EB0003D4906980968084421680844059005983A
:101EC00000E06FE0ABEB0000001FC0F31607380B1B
:101ED0000490C7F34A0003902068285A00F4784120
:101EE0000498084400B2216868522068801C285A6F
:101EF00000F478410398084401B22068801C2952FC
:101F0000A07940B9E0684044216803E03CE033E058
:101F100025E043E068500DE0E068404421686850E7
:101F200008E02749E06808442168685002E025A0DD
:101F300000F0AAF800BF761C564585D31A4BDDE9A0
:101F400006021B68C118284600F042F80198401CA0
:101F500001900B99019881423FF662AF20E00B9807
:101F600048B1294613A80B9AFFF734FB414628468F
:101F70000B9A00F02DF813E00B9820B1104913A82C
:101F80000B9AFFF727FB0BE00749129809680844F2
:101F90000E49086001201DB0BDE8F08F0020FAE76F
:101FA00000BF2BE70020F6E72400002057722062D4
:101FB0006E64207372630000556E6B20636D640065
:101FC00070050020556E6B2074700A002C000020F4
:101FD00030B5044615461348006940F00100114A27
:101FE0001061002315E000BFFEF73EFE0028FBD085
:101FF000E2580A8000BFFEF737FE0028FBD0891C9C
:10200000120C0A8000BFFEF72FFE0028FBD0891CAF
:102010001B1DAB42E7D30348006920F00100014AD1
:10202000106130BD0020024070B506460C460A48DB
:10203000006870B100213046FEF720FE0546681C9E
:1020400008B9002070BD25600020A080E08001203C
:10205000F8E70020F6E700003400002001460248BF
:102060000068405C704700003400002001460548CD
:102070000068425C03480368481C185C02EB0020BF
:1020800080B27047340000200446064801F0B0FAE0
:10209000204601F00FFA04E001F05EFA024800F079
:1020A000D9F8F9E7700500201C00002070B505463E
:1020B0000C46012204210648FEF77CFB00BF0221EA
:1020C0000448FEF738FC0028F9D00248848170BD2E
:1020D000000801400030014070B505460C46012261
:1020E00004210C48FEF766FB00BF02210A48FEF7F8
:1020F00022FC0028F9D020120749888100BF022164
:102100000548FEF718FC0028F9D0E0B202498881A2
:1021100070BD0000000801400030014070B5054668
:102120000E464FF4A0720021284600F0ADFAF022CE
:102130000021284600F016FB2C21284600F0F2FA78
:10214000012204211448FEF735FB00221021124819
:10215000FEF730FB002005E00021104A22F81010A5
:10216000411C88B2B0F5A07FF6DB002411E000200E
:102170000B4908700949284600F0A0FA01210948D6
:10218000FEF75AFA00BF064800780028FBD0601C12
:1021900084B2F02CEBDB70BD000801406C00002025
:1021A000000000203000024030B585B005460C46E6
:1021B0006846FEF741FB01210420FEF71DFB42F2B9
:1021C00010710098B0FBF1F0401E0E49088042F2F9
:1021D000107090FBF4F0091D08800A481C38008834
:1021E00040F0010007491C3908800648283800885B
:1021F00040F001000349283908801E20FFF70AF843
:1022000005B030BD2808004070B505460C463621A3
:10221000284600F087FA34B1012C09D0022C0CD0EA
:10222000032C14D10EE048212846FFF73FFF0EE0B3
:1022300028212846FFF73AFF09E088212846FFF7C2
:1022400035FF04E0E8212846FFF730FF00BF00BF5C
:1022500070BD000070B505462C21284600F062FADA
:10226000012204211F48FEF7A5FA002210211D4873
:10227000FEF7A0FA1C4E3146002000F013FE0124A8
:102280001CE00020194908703146284600F016FA73
:1022900001211748FEF7D0F91348864201D11548AD
:1022A00000E011480646314620B200F0FBFD00BFB9
:1022B0000E4800780028FBD0601C84B2F02CE0DDD2
:1022C00000F0EAFD0C480088401C0B49088000BF64
:1022D000A88818B1094800780028F9D000200749DB
:1022E000087070BD000801406C0000200000002054
:1022F00030000240EE020020020000200600002014
:1023000010B586B004460020D9490870A08001218C
:102310000846FEF761FA03208DF8160010208DF8AC
:1023200017001E20ADF8140005A9D248FEF7B7F932
:1023300001210803FEF770FA18208DF8170003201A
:102340008DF81600E020ADF8140005A9C948FEF785
:10235000A6F90020ADF800004FF48270ADF802003D
:102360000020ADF80400ADF80600ADF808004FF409
:102370000070ADF80A000020ADF80C00ADF80E00BA
:102380006946BD48FEF7E0FA0121BB48FEF7BEFAF8
:1023900001221021B748FEF70DFA00220821B548A6
:1023A000FEF708FA01220821B248FEF703FA47F2C5
:1023B0003050FEF74BFC0121204600F0B3F947F204
:1023C0003050FEF743FCCB21204600F0ABF9392119
:1023D0002046FFF76BFE2C212046FFF767FE002109
:1023E0002046FFF763FE34212046FFF75FFE0221FF
:1023F0002046FFF75BFECF21204600F093F9002135
:102400002046FFF753FEC1212046FFF74FFE302143
:102410002046FFF74BFEE821204600F083F9852196
:102420002046FFF743FE00212046FFF73FFE7821BC
:102430002046FFF73BFEEA21204600F073F9002119
:102440002046FFF733FE00212046FFF72FFEED2147
:10245000204600F067F964212046FFF727FE03219C
:102460002046FFF723FE12212046FFF71FFE8121A1
:102470002046FFF71BFEF721204600F053F92021EC
:102480002046FFF713FEC021204600F04BF925211E
:102490002046FFF70BFEC121204600F043F9102132
:1024A0002046FFF703FEC521204600F03BF93E2100
:1024B0002046FFF7FBFD28212046FFF7F7FDC72147
:1024C000204600F02FF986212046FFF7EFFD362148
:1024D000204600F027F948212046FFF7E7FD3A2182
:1024E000204600F01FF955212046FFF7DFFDB121FE
:1024F000204600F017F900212046FFF7D7FD1821EC
:102500002046FFF7D3FDB621204600F00BF9082145
:102510002046FFF7CBFD82212046FFF7C7FD27218C
:102520002046FFF7C3FD1121204600F0FBF82921CA
:10253000204600F0F7F8F221204600F0F3F80021E1
:102540002046FFF7B3FD2621204600F0EBF80121DD
:102550002046FFF7ABFDE021204600F0E3F80F2115
:102560002046FFF7A3FD31212046FFF79FFD2B21D9
:102570002046FFF79BFD0C212046FFF797FD0E211B
:102580002046FFF793FD08212046FFF78FFD4E21DF
:102590002046FFF78BFDF1212046FFF787FD37210D
:1025A0002046FFF783FD07212046FFF77FFD10211E
:1025B0002046FFF77BFD03212046FFF777FD0E2124
:1025C0002046FFF773FD09212046FFF76FFD00212C
:1025D0002046FFF76BFDE121204600F0A3F8002123
:1025E0002046FFF763FD0E212046FFF75FFD142113
:1025F0002046FFF75BFD03212046FFF757FD112121
:102600002046FFF753FD07212046FFF74FFD3121FC
:102610002046FFF74BFDC1212046FFF747FD48212B
:102620002046FFF743FD08212046FFF73FFD0F211D
:102630002046FFF73BFD0C212046FFF737FD3121F7
:102640002046FFF733FD36212046FFF72FFD0F21EF
:102650002046FFF72BFD03212046FFF7D5FD002183
:102660002046FFF75BFD204600F08EF806B010BD57
:1026700000000020000801400030014001460148F0
:10268000008870470400002070B505460E461446C9
:102690002A21284600F046F831462846FFF71CFD5F
:1026A00021462846FFF718FD70BD70B504460D465B
:1026B000A58029462046FFF777FD70BD30B58BB069
:1026C00005460C4601210846FEF786F8134800909F
:1026D0000194102002904FF42070039000200A9083
:1026E00007908020059000200490089006904FF4F9
:1026F0008050099069460A48FDF7B3FF0122022184
:1027000006480C38FEF70EF9012202210448FDF7B5
:102710009FFF0D20FEF77EFD0BB030BD0C30014059
:102720003000024070B505460C46012210210B48CE
:10273000FEF740F8002204210848FEF73BF800228B
:1027400010210648FEF736F800BF02210448FEF7C4
:10275000F2F80028F9D00248848170BD00080140D9
:102760000030014070B505460E4614462B21284620
:10277000FFF7D8FF31462846FFF7AEFC2146284632
:10278000FFF7AAFC70BD000010B586B0044601A892
:10279000FEF752F801210220FEF72EF842F21071E6
:1027A0000198B0FBF1F0401E0D49088042F2107014
:1027B000091D08800A481C38008840F001000849BB
:1027C0001C39088006482838008840F00100044978
:1027D000283908801D20FEF71DFD06B010BD000041
:1027E000280400402DE9FF4F85B00746154698465E
:1027F000DDF848903846FDF7E9FC00F0FF0B0026B5
:1028000056E0BC5D4FF0000A612C04DB7A2C02DC40
:10281000A4F12000C4B2412C08DB5A2C06DCA4F140
:10282000410000EB4000254901EB800A302C08DB19
:10283000392C06DCA4F1160000EB40001F4901EB27
:10284000800A2D2C01D1DFF878A02B2C01D1DFF8E4
:1028500074A0272C01D1DFF870A02E2C01D1DFF855
:102860006CA05F2C01D1DFF868A07E2C01D1DFF8CD
:1028700064A02F2C01D1DFF860A0BAF1000F0DD0B9
:1028800000200C2101220FFA88F3CDE90209CDE9DD
:1028900000212AB25046069900F0C4F9B9F1000FA0
:1028A00001D0102000E00820284485B2701CC6B278
:1028B0005E45A6DB09B0BDE8F08F0000AC3700082C
:1028C0005C3900086839000874390008803900084C
:1028D0008C39000898390008A439000801460548D9
:1028E0000068054A32F81120104008B901207047ED
:1028F0000020FCE7080C0140A037000870B5002458
:10290000002503E0FEF7BEFD04446D1C082DF9DB35
:10291000E01000B270BD70B50024002503E0FEF7A2
:10292000BDFD04446D1C082DF9DBE01000B270BD44
:10293000014908607047000014000020012803D1FD
:10294000FF21044A117003E00021024A117000BF08
:1029500000BF70470D00002001490870704700005B
:10296000100000202DE9F041DDE90656089C3B4FA0
:102970003F78DFF8ECC0BCF800C067456CDA394F2F
:102980003F68DFF8D8C09CF800C007EB0C17386030
:102990000127DFF8D0C0DCF800C0DFF8C08098F86D
:1029A00000800CEB081C8CF80C702E4F3F68DFF891
:1029B000ACC09CF800C007EB0C17B980294F3F68EA
:1029C000DFF898C09CF800C007EB0C17FA800CB138
:1029D0005F0000E01F46DFF88CC0DCF800C0DFF8C5
:1029E0007C8098F800800CEB081CACF808700CB1E7
:1029F0006F0000E02F461FFA87FC1A4F3F68DFF890
:102A00005C8098F8008007EB0817A7F80AC0154FFC
:102A10003F68DFF848C09CF800C007EB0C17BC7398
:102A2000104F3F68DFF834C09CF800C007EB0C176C
:102A3000FE734FF0000C0B4F3F68DFF8208098F8D2
:102A4000008007EB081787F80DC0044F3F787F1C04
:102A5000DFF808C08CF80070BDE8F0810C000020A1
:102A60000E00002008000020C1F30F12054B1A8051
:102A7000054A10600022054B1A70054A054B1A6082
:102A8000704700000E000020080000200C0000200D
:102A90008C370008140000202DE9F0470746DDE9D7
:102AA000096C089D0B9C0020DFF86C8198F8008071
:102AB000DFF86891B9F80090C8457CDA082914D08D
:102AC00006DC01290BD002290BD0042915D10AE01C
:102AD00010290CD020290CD040290ED10BE0002069
:102AE0000DE001200BE0022009E0032007E00420B4
:102AF00005E0052003E0062001E0BDE8F08700BF07
:102B0000DFF81C81D8F80080DFF80C9199F800906C
:102B100008EB0918C8F800704FF00408DFF80091BE
:102B2000D9F80090DFF8F0A09AF800A009EB0A1994
:102B300089F80C80DFF8E880D8F80080DFF8D890BA
:102B400099F8009008EB0918A8F80420DFF8D08065
:102B5000D8F80080DFF8C09099F8009008EB0918C9
:102B6000A8F8063024B105FA00F84FEA480801E059
:102B700005FA00F8DFF8A890D9F80090DFF898A0DF
:102B80009AF800A009EB0A19A9F8088024B106FAFE
:102B900000F84FEA480801E006FA00F8DFF88090F4
:102BA000D9F80090DFF870A09AF800A009EB0A1994
:102BB000A9F80A8000E02DE0DFF86480D8F80080F2
:102BC000DFF8549099F8009008EB091888F80E4047
:102BD000DFF84C80D8F80080DFF83C9099F800903E
:102BE00008EB091888F80FC0DFF83480D8F80080A7
:102BF000DFF8249099F8009008EB091888F80D0088
:102C0000DFF8148098F8008008F10108DFF80890D8
:102C100089F8008000BF70E70C0000200E00002043
:102C2000080000202DE9F04307ADE0CD0A9CDFF855
:102C300020C19CF800C0DFF81C81B8F80080C445B2
:102C40007DDADFF814C1DCF800C0DFF8048198F801
:102C500000800CEB081CCCF800004FF0020CDFF8F1
:102C6000F880D8F80080DFF8E89099F8009008EB39
:102C7000091888F80CC0DFF8E0C0DCF800C0DFF805
:102C8000D08098F800800CEB081CACF80420DFF82A
:102C9000C8C0DCF800C0DFF8B88098F800800CEB02
:102CA000081CACF8063014B14FEA051C01E04FEAED
:102CB000C50CDFF8A480D8F80080DFF8949099F86C
:102CC000009008EB0918A8F808C014B14FEA460CA8
:102CD00000E0B446DFF88080D8F80080DFF870901C
:102CE00099F8009008EB0918A8F80AC0DFF868C046
:102CF000DCF800C0DFF8588098F800800CEB081C66
:102D00008CF80D10DFF850C0DCF800C0DFF8408010
:102D100098F800800CEB081C8CF80E40DFF838C0E7
:102D2000DCF800C0DFF8288098F800800CEB081C65
:102D30008CF80F70DFF818C09CF800C000E005E0C8
:102D40000CF1010CDFF8088088F800C0BDE8F083C2
:102D50000C0000200E000020080000202DE9F043A8
:102D600007ADE0CD0A9CDFF824C19CF800C0DFF875
:102D70002081B8F80080C4457EDADFF818C1DCF89D
:102D800000C0DFF8088198F800800CEB081CCCF834
:102D900000004FF0030CDFF8FC80D8F80080DFF86B
:102DA000EC9099F8009008EB091888F80CC0DFF84F
:102DB000E4C0DCF800C0DFF8D48098F800800CEBA9
:102DC000081CACF80420DFF8CCC0DCF800C0DFF849
:102DD000BC8098F800800CEB081CACF8063014B1ED
:102DE0004FEA450C00E0AC46DFF8A880D8F8008038
:102DF000DFF8989099F8009008EB0918A8F808C037
:102E000014B14FEA460C00E0B4461FFA8CF8DFF824
:102E100084C0DCF800C0DFF8749099F800900CEBE7
:102E2000091CACF80A80DFF86CC0DCF800C0DFF8E1
:102E30005C8098F800800CEB081C8CF80E40DFF8E2
:102E400054C0DCF800C0DFF8448098F800800CEB38
:102E5000081C8CF80F70DFF83CC0DCF800C0DFF80D
:102E60002C8098F800800CEB081C8CF80D10DFF813
:102E70001CC09CF800C000E005E00CF1010CDFF87C
:102E80000C8088F800C0BDE8F08300000C00002032
:102E90000E00002008000020002001490870704743
:102EA0000C0000202DE9F34F8DB08946FA480078D8
:102EB00030B1FA4802784FF420714846FDF7F9F92D
:102EC0000020C4E2F649096801EB0015B5F90620B7
:102ED0000D998A427DDCB5F906106A890A440D997C
:102EE0008A4276DDA97B09B1012100E00021019130
:102EF000E97B01F0010191B1019941B16A89B5F90C
:102F000006300D99C91A511A491E491013E06A89F1
:102F1000B5F906300D99C91A511A491E0BE00199ED
:102F200029B1B5F906200D99891A491003E0B5F9C0
:102F300006200D99891A89B20891E97B01F00201F6
:102F400011B14FF0FF3100E001210391B5F90440C8
:102F5000297B012906D0022971D0032970D00429C8
:102F60006FD1B4E1019911B12989491000E0298993
:102F7000884629680291E97B01F0020131B1089984
:102F800001FB0881491E029A114403E0029A089944
:102F900001FB08210F460199B1B3002C1ADB2989E6
:102FA000C1F5A071A14215DD00260FE0397841B1CD
:102FB0003978BC4A126832F8111001EB014149F826
:102FC0001410A41C03990F44711C0EB24645EDDB8E
:102FD0004FE03AE2002614E0397869B1002C0BDBAF
:102FE000B4F5A07F08DA3978AE4A126832F81110C9
:102FF00001EB014149F81410A41C03990F44711C02
:103000000EB24645E8DB34E0FFE7002C1ADB2989E5
:10301000C1F5A071A14215DD00260DE0397831B16E
:103020003978A04A126832F8111029F81410641C7B
:1030300003990F44711C0EB24645EFDB19E019E00D
:10304000C8E001E2002612E0397859B1002C09DB12
:10305000B4F5A07F06DA3978924A126832F8111076
:1030600029F81410641C03990F44711C0EB24645D4
:10307000EADBE9E1697B8B4A126832F811B0296812
:103080000291019981B329894FEA2118089901FB1E
:1030900008F10691002C25DB2989C1F5A071A14218
:1030A00020DD00261BE006998A190299895C0491AB
:1030B0004FF0000A0EE0802141FA0AF1049A114013
:1030C00019B10BEB0B4149F81410A41C0AF10101D2
:1030D0000FFA81FABAF1080FEDDB711C0EB246450A
:1030E000E1DB76E0002621E023E006998A190299C7
:1030F000895C04914FF0000A13E0002C0CDBB4F55E
:10310000A07F09DA802141FA0AF1049A114019B12D
:103110000BEB0B4149F81410A41C0AF101010FFA42
:1031200081FABAF1080FE8DB711C0EB24645DCDB10
:103130004FE029894FEAE108089901FB08F106915F
:10314000002C23DB2989C1F5A071A1421EDD0026D8
:1031500019E006998A190299895C04914FF0000AD6
:103160000CE0802141FA0AF1049A114009B129F8D2
:1031700014B0641C0AF101010FFA81FABAF1080FC8
:10318000EFDB711C0EB24645E3DB22E000261EE0B9
:1031900006998A190299895C04914FF0000A11E09E
:1031A000002C0ADBB4F5A07F07DA802141FA0AF18E
:1031B000049A114009B129F814B0641C0AF1010104
:1031C0000FFA81FABAF1080FEADB711C0EB246451C
:1031D000DEDB39E1019911B12989491000E0298923
:1031E000884629680291E97B01F0020131B1089912
:1031F00001FB0881491E029A114403E0089A0299D2
:1032000002FB08110F46697B264A126832F811B09A
:10321000019959B3002C14DB2989C1F5A071A14291
:103220000FDD00260AE0397819B10BEB0B4149F8A4
:103230001410A41C03990F44711C0EB24645F2DB16
:1032400044E000260FE0397841B1002C06DBB4F5EC
:10325000A07F03DA0BEB0B4149F81410A41C03996F
:103260000F44711C0EB24645EDDB2FE0002C1BDB3A
:103270002989C1F5A071A14216DD002608E0397840
:1032800009B129F814B0641C03990F44711C0EB2E3
:103290004645F4DB1AE00000100000200D0000207D
:1032A000080000201400002000260DE0397831B11C
:1032B000002C04DBB4F5A07F01DA29F814B0641CFB
:1032C00003990F44711C0EB24645EFDBBCE0019937
:1032D00021B129896A7B1141491002E029896A7B61
:1032E00011410A916A7B012191401FFA81F80899E6
:1032F00091FBF8F189B20991089991FBF8F208FB6A
:10330000121189B20891089901FB08F10691DDE9D3
:103310000912514305914FF6FF7101EA48010B91E3
:1033200029680C910199E9B30021079143E00C99B8
:103330000CC90599595C52F8212006995718002CA0
:1033400018DB0B99C1F5A071A14213DD00260EE038
:10335000397841B13978424A126832F811B00BEB32
:103360000B4149F814107F1CA41C711C0EB2464579
:10337000EEDB19E0002613E0397869B1002C0BDB95
:10338000B4F5A07F08DA3978354A126832F811B0FE
:103390000BEB0B4149F814107F1CA41C711C0EB2DE
:1033A000464500E00CE0E7DB0599491C05910799CB
:1033B000491C09B207910A9A07999142B7DB42E08A
:1033C000002107913BE02A68059952F821200699CF
:1033D0005718002C16DB0B99C1F5A071A14211DD25
:1033E00000260CE0397831B139781D4A126832F87C
:1033F000111029F814107F1C641C711C0EB2464574
:10340000F0DB15E0002611E0397859B1002C09DB1A
:10341000B4F5A07F06DA3978114A126832F8111033
:1034200029F814107F1C641C711C0EB24645EBDB9E
:103430000599491C05910799491C09B207910A9AF7
:1034400007999142BFDB00BF00BF411C88B205490C
:1034500009788842FFF636AD0FB0BDE8F08F000066
:10346000140000200C00002030B58BB004460D463F
:103470000E480068C0B17DB1072007E004F00F01DD
:1034800024110B4A525C01AB1A54401E0028F5DA95
:1034900000208DF80C0003E001A92046FEF775F826
:1034A00001A800F007F800BF0BB030BD30000020CD
:1034B000B03900082DE9F04106461C480068002894
:1034C00031D03046FCF782FE282803D23046FCF784
:1034D0007DFE00E028200746144804682068132871
:1034E0000ED100250AE01148006800F53F70405DEC
:1034F000202802D000F058F802E06D1C282DF2DBE5
:10350000216801EB810209490968091D01EBC2002C
:103510003A463146FCF779FE2068132802D220682B
:10352000401C206000BFBDE8F0810000300000209A
:1035300010B5084801680020086000BF05E020239E
:10354000044A1468021DA354401CB0F5487FF6DB02
:1035500010BD00003000002030B58DB01148056866
:103560002C681AE004EB84020E480068001D00EB92
:10357000C201282202A8FCF748FE00208DF8300086
:10358000009004EB44004FF6FF7101EA8003002233
:10359000042102A8FFF726F9641E002CE2DA0DB020
:1035A00030BD00003000002010B5002412E0621C85
:1035B00002EB82030D4A1268121D02EBC30104EBF9
:1035C00084030A4A1268121D02EBC3002822FCF78A
:1035D0001CFE641C132CEADB20222821034800680F
:1035E00000F53F70FCF765FE10BD000030000020C4
:1035F00010B5044602480460FFF79AFF10BD0000B2
:103600003000002002480349034901607047000070
:103610001C000020E4390008C839000808B5FDF78F
:103620001DFC00285DD03048FEF76AFE2F48FFF7EA
:10363000DFFF4FF480512E48FFF716FA2D48FEF7B2
:1036400047FB0546FDF7F4FD10B1FEF7B1FA47E080
:103650003DB1294929A0FEF7ADFB10B1FEF7A8FA4C
:103660003BE01E212048FFF720F80024012633E02C
:10367000A01904B2A02C01DD4FF0FF36002C00DAB7
:1036800001260020009004F10A0083B20A220421DE
:103690001EA0FFF7A7F80020009004F11A0083B2E3
:1036A0000A2204211FA0FFF79DF80020009004F1DA
:1036B0002A0083B20A22042121A0FFF793F80020F8
:1036C000009004F13A0083B20A22042124A0FFF7FB
:1036D00089F80548FEF7BEFDCAE728A0FFF7EAFE15
:1036E00000BFFDF767FA00001C00002070050020F5
:1036F000700D002070250020702900202F61757446
:103700006F72756E2E766578000000004E6F207027
:10371000726F6772616D20696E206D656D6F727971
:103720000000000055736520706174636865722045
:10373000746F206C696E6B2070726F6772616D00C0
:103740004F7220707574206175746F72756E2E766D
:103750006578206F6E20534420636172640000001E
:103760005468616E6B20796F7520666F7220757377
:10377000696E67205669726579650000556E6162F1
:103780006C6520746F206C6F6164000000000000A5
:10379000FFFFE0071F0000F88C51FFE05E97939059
:1037A000100020004000800000010002001E0A0AF4
:1037B0001212223E42420000007C4242427C4242BF
:1037C000427C0000003C424040404040423C0000FF
:1037D000007C424242424242427C0000003E404065
:1037E000407C4040407E0000007E4040407C4040A5
:1037F00040400000003E404040404642423E000003
:1038000000424242427E424242420000007C10108E
:1038100010101010107C0000007E02020202020252
:10382000423C00000042444850605048444200007E
:103830000040404040404040407E000000426666FC
:103840005A5A4242424200000042626252524A4A7E
:1038500046460000003C424242424242423C000096
:10386000007C4242427C404040400000003C4242DA
:10387000424242524A3C0200007C4242427C60503A
:1038800048460000003C4240403C0202423C0000EE
:10389000007C101010101010101000000042424266
:1038A00042424242423C000000444444282828103E
:1038B0001010000000444454545454545428000040
:1038C0000044442828102828444400000044442888
:1038D0002810101010100000007E020204081020B2
:1038E000407E0000000038444464544C44380000DA
:1038F0000000103050101010107800000000384404
:1039000004040810207C000000003844040438043B
:10391000443800000000081828487C08083C0000D3
:1039200000007C40404078040478000000001C2027
:10393000404078444438000000007C4408081010DF
:10394000202000000000384444443844443800003B
:1039500000003844443C04044438000000000000E7
:1039600000007C00000000000000000010107C102F
:103970001000000000606020000000000000000057
:103980000000000000000000606000000000000077
:10399000000000007E7E00000000000000207A5E33
:1039A000040000000404080810102020404000001B
:1039B00030313233343536373839616263646566A5
:1039C0000000000000000000000000007D2600084C
:1039D000AB26000801230008552200080000000063
:1039E00000000000000000000000000000000000D7
:1039F00000000000000000001C3A00080000002049
:103A00006C00000028010008883A00086C000020C3
:103A1000644B000044010008EDFBFFFF00000000C4
:103A20000000000000000000000000000100000095
:103A30000000000000000000000000000000000086
:103A40000040000800A00008000000000000000086
:103A50000000000000000000FFFFFFFF000000006A
:103A60000000000000000000000000000000000056
:103A70000000000000000000010203040102030432
:083A800006070809020406080C
:040000050800018D61
:00000001FF
