:020000040800F2
:10000000A84B00208D010008950100089701000809
:10001000990100089B0100089D01000800000000F4
:100020000000000000000000000000009F01000828
:10003000A101000800000000A3010008A5010008BC
:10004000A7010008A7010008A7010008A7010008F0
:10005000A7010008A7010008A7010008A7010008E0
:10006000A7010008A7010008A7010008A7010008D0
:10007000A7010008D9050008A7010008A70100088A
:10008000A7010008A7010008A7010008A7010008B0
:10009000A7010008A7010008A7010008A7010008A0
:1000A000A7010008A7010008A7010008A701000890
:1000B000A7010008E90A0008110B0008A7010008C1
:1000C000A7010008A7010008A7010008A701000870
:1000D000A7010008A7010008A7010008A701000860
:1000E000A7010008A7010008A701000800F002F816
:1000F00000F03CF80AA090E8000C82448344AAF186
:100100000107DA4501D100F031F8AFF2090EBAE883
:100110000F0013F0010F18BFFB1A43F0010318473B
:10012000DC260000FC260000103A24BF78C878C105
:10013000FAD8520724BF30C830C144BF04680C60ED
:10014000704700000023002400250026103A28BF35
:1001500078C1FBD8520728BF30C148BF0B60704739
:100160001FB500F0A7F81FBD10B510BD00F02FF9A6
:100170001146FFF7F5FF02F08BF900F04DF903B4DB
:10018000FFF7F2FF03BC00F051F900000948804777
:1001900009480047FEE7FEE7FEE7FEE7FEE7FEE769
:1001A000FEE7FEE7FEE7FEE704480549054A064B81
:1001B00070470000890A0008ED000008A8450020EB
:1001C000A84B0020A8470020A847002010B5431CDA
:1001D00002E010F8011B71B18107FAD14FF0013232
:1001E00002C88C1A8C4314EAC211F9D0C01A0A064C
:1001F00003D0C01E10BDC01A10BD0A0401D0801E5D
:1002000010BD0902FCD0401E10BD032A40F2308010
:1002100010F0030C00F0158011F8013BBCF1020F47
:10022000624498BF11F801CB00F8013B38BF11F8C8
:10023000013BA2F1040298BF00F801CB38BF00F8DF
:10024000013B11F0030300F04780083AC0F008803A
:1002500051F8043B083A51F804CBA0E80810F5E740
:10026000121D5CBF51F8043B40F8043BAFF3008023
:10027000D20724BF11F8013B11F801CB48BF11F898
:10028000012B24BF00F8013B00F801CB48BF00F868
:10029000012B704701B5FFF7B8FF01BD02F0FF0366
:1002A00043EA032242EA024200F04AB8704770472C
:1002B0007047000070B5064C7C44064D7D4403E059
:1002C000206820448047241DAC42F9D170BD000055
:1002D000602500006025000010B5203AC0F00B80BA
:1002E000B1E81850203AA0E81850B1E81850A0E83A
:1002F0001850BFF4F5AF5FEA027C24BFB1E8185094
:10030000A0E8185044BF18C918C0BDE810405FEA03
:10031000827C24BF51F8043B40F8043B08BF70477F
:10032000D20728BF31F8023B48BF11F8012B28BF84
:1003300020F8023B48BF00F8012B70474FF0000245
:100340000429C0F0128010F0030C00F01B80CCF1E7
:10035000040CBCF1020F18BF00F8012BA8BF20F855
:10036000022BA1EB0C0100F00DB85FEAC17C24BFA9
:1003700000F8012B00F8012B48BF00F8012B704753
:100380004FF0000200B5134694469646203922BF2E
:10039000A0E80C50A0E80C50B1F12001BFF4F7AF79
:1003A000090728BFA0E80C5048BF0CC05DF804EB5B
:1003B000890028BF40F8042B08BF704748BF20F8C9
:1003C000022B11F0804F18BF00F8012B70477546C3
:1003D00000F032F8AE4605006946534620F00700AB
:1003E000854618B020B5FFF7DFFEBDE820404FF08E
:1003F00000064FF000074FF000084FF0000B21F00F
:100400000701AC46ACE8C009ACE8C009ACE8C009DB
:10041000ACE8C0098D46704710B50446AFF30080C4
:100420002046BDE81040FFF7AABE00000149182091
:10043000ABBEFEE72600020000487047444500209E
:10044000704721B1426842F48062426003E0426832
:1004500022F480624260704721B1826842F001025A
:10046000826003E0826822F00102826070470A46DF
:100470000021816821F4E041114381607047014609
:1004800000208A6802F004020AB1012000E0002086
:10049000704708B5024600200090009201F1280044
:1004A000009B184400900098006880B208BD014687
:1004B00000208A6802F008020AB1012000E0002052
:1004C0007047000030B502460020002350680F4CF2
:1004D00020400D790C6844EA052420435060906860
:1004E0000B4C2040D1E902542C434D7944EA450499
:1004F00020439060D06A20F470000C7C641EE4B24B
:10050000234340EA0350D06230BD0000FFFEF0FFFD
:10051000FDF7F1FFF0B50446154600200022002645
:10052000092911DDE068A1F10A0707EB470C07274D
:1005300007FA0CF29043A1F10A0707EB470703FA09
:1005400007F21043E0600CE0206901EB410C072743
:1005500007FA0CF2904301EB410703FA07F210434C
:100560002061A06BC0F30156EF1C06F1010CA7EB54
:100570000C0707EB870C1F2707FA0CF29043EF1CC0
:1005800006F1010CA7EB0C0707EB870701FA07F24E
:100590001043A063F0BD10B50A4600210023816B13
:1005A00021F44011531E41EA0351816310BD81685B
:1005B00041F008018160704721B1826842F4021263
:1005C000826003E0826822F40212826070478168D0
:1005D00041F004018160704710B5012202210748F3
:1005E00000F0E7F80021064800F01CF84FF4007016
:1005F00000F00AF801200349087010BD000801400E
:10060000300002400000002000F0805111B1034989
:10061000086001E00249486070470000040402409D
:100620000000024021B1026842F00102026004E0D1
:1006300002684FF6FE731A40026070471AB10368F1
:100640000B43036002E003688B430360704710B5FF
:100650000022026847F6F0739A430C6A8B682343C2
:100660000C6923434C6923438C692343CC6923439E
:100670004C6A23438C6A23431A430260CB6843606D
:100680000B6883604B68C36010BD2DE9F0410246E2
:1006900000250026002000230024002791F803C035
:1006A0000CF00F0591F803C00CF0100CBCF1000F1A
:1006B00003D091F802C04CEA050591F800C0BCF1E6
:1006C000000F31D0146800202BE04FF0010C0CFA21
:1006D00000F3B1F800C00CEA03069E4220D183006B
:1006E0004FF00F0C0CFA03F7BC4305FA03FC4CEA7D
:1006F000040491F803C0BCF1280F06D14FF0010C9F
:100700000CFA00FCC2F814C00AE091F803C0BCF176
:10071000480F05D14FF0010C0CFA00FCC2F810C0D4
:10072000401C0828D1D31460B1F800C0BCF1FF0F01
:1007300034DD546800202EE000F1080C4FF0010871
:1007400008FA0CF3B1F800C00CEA03069E4221D16E
:1007500083004FF00F0C0CFA03F7BC4305FA03FCBF
:100760004CEA040491F803C0BCF1280F05D100F154
:10077000080C08FA0CF8C2F8148091F803C0BCF118
:10078000480F07D100F1080C4FF0010808FA0CF8E7
:10079000C2F81080401C0828CED35460BDE8F08118
:1007A0000246002093680B400BB1012000E00020BE
:1007B00070470AB1016100E04161704701460020C5
:1007C000034A506820F440400843506070470000DE
:1007D0000010024029B1064A52690243044B5A6193
:1007E00004E0034A52698243014B5A61704700009A
:1007F0000010024029B1064AD2690243044BDA6173
:1008000004E0034AD2698243014BDA617047000079
:100810000010024029B1064A92690243044B9A61D2
:1008200004E0034A92698243014B9A6170470000D9
:100830000010024030B500210022002400232D4D7D
:100840006D6805F00C0121B1042905D0082923D1D8
:1008500005E0294D056022E0274D05601FE0254D8C
:100860006D6805F47012234D6D6805F4803402251F
:1008700005EB92421CB9214D554305600BE01D4D1F
:100880006D6805F400351DB11C4D5543056002E04F
:10089000194D5543056002E0174D056000BF00BFCC
:1008A000144D6D6805F0F0010909154D6B5C056884
:1008B000DD4045600F4D6D6805F4E061090A104D9B
:1008C0006B5C4568DD4085600A4D6D6805F46051DC
:1008D000C90A0B4D6B5C4568DD40C560054D6D6810
:1008E00005F44041890B074D6B5CC568B5FBF3F51A
:1008F000056130BD0010024000127A0000093D0081
:100900002C0000203C00002021B1028842F040026F
:10091000028004E002884FF6BF731A4002807047DD
:100920001AB183880B43838002E083888B438380E2
:1009300070470246002013890B400BB1012000E0F4
:100940000020704710B50022028802F441520B8843
:100950004C8823438C882343CC8823430C8923432E
:100960004C8923438C892343CC8923431A43028037
:10097000838B4FF2FF74234083830B8A038210BD65
:100980004FF6FF62914204D0028842F480720280E6
:1009900004E002884FF6FF631A400280704710B5EA
:1009A00000F002F810BD00000CB50020019000908E
:1009B0003348006840F480303149086000BF304857
:1009C000006800F4003000900198401C01900098ED
:1009D00018B90198B0F5A06FF1D12948006800F46A
:1009E000003010B10120009001E00020009000983C
:1009F000012843D12348006840F0100021490860D5
:100A00000846006820F0030008600846006840F0CF
:100A1000020008601A484068194948600846406862
:100A200048600846406840F4806048600846406876
:100A300020F47C1048600846406840F46410486028
:100A40000846006840F08070086000BF0C480068ED
:100A500000F000700028F9D00948406820F0030039
:100A6000074948600846406840F00200486000BFFF
:100A70000348406800F00C000828F9D10CBD0000C4
:100A8000001002400020024010B51348006840F0FA
:100A900001001149086008464068104908400E49A5
:100AA0004860084600680E4908400B49086008463F
:100AB000006820F4802008600846406820F4FE00AA
:100AC00048604FF41F008860FFF769FF4FF0006037
:100AD0000449086010BD0000001002400000FFF84B
:100AE000FFFFF6FE08ED00E00648008820F0010058
:100AF000044908800448008804490880002002490D
:100B0000088070471004004002000020040000200C
:100B10000448008820F001000249088001200249B1
:100B200008707047100800400600002010B502460B
:100B30000B46002119E00E48006940F002000C4C01
:100B40002061501860612046006940F0400020613B
:100B500000BF00F01DF80028FBD00548006920F018
:100B60000200034C206101F580619942E3D310BD7E
:100B70000020024000BF011EA0F10100FBD1704720
:100B800010B5024800F0B8FC10BD000018000020AD
:100B90000348C06800F0010080F0010070470000C9
:100BA0000020024000B587B001210420FFF732FE8B
:100BB00001210820FFF72EFE01211020FFF72AFE59
:100BC00001214802FFF726FE01218802FFF722FEDD
:100BD0004FF44040FFF7F2FD03208DF81A0010207B
:100BE0008DF81B004FF40850ADF8180006A92C48EA
:100BF000FFF74BFD03208DF81A0048208DF81B00ED
:100C00000720ADF8180006A92648FFF73EFD002092
:100C1000019001208DF808008DF809004FF4602044
:100C200003900020049002208DF8140001A91E48B2
:100C3000FFF748FC02211C48FFF7ADFC01231A46D0
:100C400008211948FFF766FC0123022209211648F2
:100C5000FFF760FC4FF4E0411348FFF708FC012167
:100C60001148FFF7F9FB1048FFF7A1FC00BF0E4841
:100C7000FFF71DFC0028FAD10B48FFF7A8FC00BFC6
:100C80000948FFF7FCFB0028FAD101210648FFF7CD
:100C9000D8FB01210448FFF78FFC012007B000BDFD
:100CA00000100140000C014000240140002809DB35
:100CB00000F01F02012191404209920002F1E0225E
:100CC000C2F800117047000010B514210348FFF767
:100CD000E0FBA0F5006000B210BD00000024014060
:100CE00010B518210348FFF7D4FBA0F5006000B24F
:100CF00010BD000000240140024605E0107808B94C
:100D000001207047521C491C10780B789842F5D08E
:100D10000020F6E72DE9F04104460D46271E00DAD3
:100D20006442002600BF0A2094FBF0F100FB114052
:100D30003030C2B23046761C2A540A2094FBF0F0C0
:100D4000041EF0DC002F03DA2D223046761C2A54D4
:100D50000020A855284600F03DF9BDE8F0810000CC
:100D600010B5044621463CA0FFF7C6FF08B13F4836
:100D700010BD21463EA0FFF7BFFF08B14148F7E78D
:100D8000214641A0FFF7B8FF08B14448F0E72146EB
:100D900043A0FFF7B1FF08B14648E9E7214646A066
:100DA000FFF7AAFF08B14A48E2E7214649A0FFF74A
:100DB000A3FF08B14D48DBE721464DA0FFF79CFF9C
:100DC00008B14F48D4E721464EA0FFF795FF08B180
:100DD0004F48CDE721464FA0FFF78EFF08B150489E
:100DE000C6E721464FA0FFF787FF08B15048BFE78D
:100DF000214650A0FFF780FF08B15248B8E72146CE
:100E000051A0FFF779FF08B15348B1E7214653A03D
:100E1000FFF772FF08B15548AAE7214654A0FFF733
:100E20006BFF08B15648A3E7214656A0FFF764FFC1
:100E300008B156489CE7214655A0FFF75DFF08B171
:100E4000564895E7214656A0FFF756FF08B1574888
:100E50008EE700208CE7000063722E645365744CAB
:100E6000696E65436C65617200000000291B000813
:100E700063722E6453657446696C6C436F6C6F7259
:100E8000000000000D1B000863722E64536574534C
:100E900070726974654D656D6F727900E11B0008B1
:100EA00063722E64446973706C61795370726974F3
:100EB00065000000351B000863722E64446973707E
:100EC0006C61795370726974654D61736B000000D9
:100ED000111C000863722E64446973706C6179534D
:100EE00070726974654D617472697800FD1C000848
:100EF00063722E64446973706C6179546578740010
:100F00009D19000863722E6453796E63000000001F
:100F1000810B000863722E644765744650530000CD
:100F2000B10F000863722E6453657446505300007D
:100F3000C10F000863722E6453657450616C657450
:100F400074650000011B000863722E6947657453C5
:100F500074617465000000006D1A000863722E69E8
:100F6000476574584178697300000000911A0008C1
:100F700063722E69476574594178697300000000F7
:100F8000C91A000863722E68436D7000F90C0008DE
:100F900063722E6849746F6100000000150D00082F
:100FA00063722E684D656D637079000095020008CC
:100FB00010B5024800F03EFC10BD000018000020F3
:100FC00010B504462146024800F04BFC10BD00005D
:100FD000180000202DE9F041044600252046FFF7C7
:100FE000F5F8401E86B207E0675DA05D6055A75525
:100FF000681C85B2701E86B2B542F5DBBDE8F08193
:1010000070B506480068441C2546A84706460021DE
:10101000304601F06FF9002070BD00002400002070
:101020002DE9F04F95B098480668984D9848994931
:101030004860994848604FF4C04198480068FFF7FD
:1010400075FD1C2231460AA8FFF7DFF894A001F0D5
:1010500077F900210C9801F04DF900210D9801F06D
:1010600049F900210E9801F045F900210F9801F08F
:1010700041F90021109801F03DF91C3687490E987E
:10108000096800EB010BDDE90E01084403900398A9
:10109000B0F5C04F06D984A001F052F9002015B078
:1010A000BDE8F08F0D98B0F5804F04D97EA001F017
:1010B00047F90020F3E7109820B17EA001F040F935
:1010C0000020ECE700200190D8E0306808907068BC
:1010D000099008369DF82000002876D0032875D0A6
:1010E000042874D0062873D100200090A2E01022BA
:1010F000314604A8FFF789F81036DDE905010144FF
:10110000079801EB0019079813904A463146284684
:10111000FFF77BF84E444FF000087CE00598284428
:101120000699084400EB081465A001F009F9A088AD
:1011300002284ED003285CD0042860D1E079012831
:1011400004D060A001F0FCF80020A8E7A0790128F5
:1011500034D105982844A168084414901498FFF7E6
:10116000FFFD074627B95AA001F0EAF8002096E7EC
:101170004A49049809680844216808440290029882
:10118000381A001FC0F3160A4FEA1A301290CAF339
:101190004A0011902068285A00F4784112980844B7
:1011A00000B2216868522068801C285A00F47841F7
:1011B0001198084401B22068801C2952A07918B9FE
:1011C000E06858442168685022E049E040E037E098
:1011D00048E041A001F0B4F80021206801F08AF84D
:1011E0000021E06801F086F8E06858442168685002
:1011F0000EE03B49E06808442168685008E039A0E7
:1012000001F09EF8A088002101F074F8002046E764
:1012100000BF08F1010813988045FFF47FAF1F4B12
:10122000DDE904021B68C118284600F065F8009843
:10123000401C00900999009881423FF658AF1CE08D
:1012400059463046099A00F057F80998064414E0C8
:1012500031462348099AFEF7D8FF099806440CE066
:1012600001201CE721A001F06BF89DF8200000216F
:1012700001F040F80120019000BF00BF0198002854
:101280003FF423AF00200AE720000020442500207F
:101290002301674500200240AB89EFCD24000020E8
:1012A00050524F4752414D004E7420656E20726D72
:1012B00000000000456E747279206E74207A72000E
:1012C000524C0A00577220626E64207372630000F1
:1012D000556E6B20636D6400524F4D0A0000000094
:1012E00044050020556E6B2074700A00556E6B200B
:1012F000626C2074700A000030B50446154613482D
:10130000006940F00100114A1061002315E000BFA0
:10131000FFF73EFC0028FBD0E2580A8000BFFFF731
:1013200037FC0028FBD0891C120C0A8000BFFFF795
:101330002FFC0028FBD0891C1B1DAB42E7D30348C0
:10134000006920F00100014A106130BD0020024018
:1013500070B505460C46012204210648FFF729FA1C
:1013600000BF02210448FFF7E4FA0028F9D0024840
:10137000848170BD000801400030014070B5054611
:101380000C46012204210C48FFF713FA00BF02218A
:101390000A48FFF7CEFA0028F9D0201207498881C1
:1013A00000BF02210548FFF7C4FA0028F9D0E0B2D7
:1013B0000249888170BD00000008014000300140F2
:1013C00070B505460E464FF4A0720021284600F085
:1013D00037FAF0220021284600F0A0FA2C212846F6
:1013E00000F07CFA012204211448FFF7E2F9002200
:1013F00010211248FFF7DDF9002005E00021104A16
:1014000022F81010411C88B2B0F5A07FF6DB002452
:1014100011E000200B4908700949284600F02AFA1B
:1014200001210948FFF7FEF800BF064800780028B0
:10143000FBD0601C84B2F02CEBDB70BD00080140D7
:1014400040000020000000203000024030B585B090
:1014500005460C466846FFF7EDF901210420FFF729
:10146000C9F942F210710098B0FBF1F0401E0E492C
:10147000088042F2107090FBF4F0091D08800A48C1
:101480001C38008840F0010007491C3908800648D4
:101490002838008840F001000349283908801E20C0
:1014A000FFF704FC05B030BD2808004070B50546C4
:1014B0000C463621284600F011FA34B1012C09D02F
:1014C000022C0CD0032C14D10EE048212846FFF743
:1014D0003FFF0EE028212846FFF73AFF09E0882168
:1014E0002846FFF735FF04E0E8212846FFF730FFE4
:1014F00000BF00BF70BD000070B505464FF4A0727C
:101500000021284600F09CF9F0220021284600F036
:1015100005FA2C21284600F0E1F901220421204897
:10152000FFF747F9002210211D48FFF742F91D4E31
:101530003146002000F0A4FC01241CE000201A49E0
:1015400008703146284600F095F901211748FFF749
:1015500069F81448864201D1154800E01148064652
:10156000314620B200F08CFC00BF0F480078002804
:10157000FBD0601C84B2F02CE0DD00F07BFC0D4859
:101580000088401C0B49088000BFA88818B10A4891
:1015900000780028F9D000200749087070BD0000CD
:1015A0000008014040000020000000203000024000
:1015B000C2020020020000200600002010B586B004
:1015C0000446002098490870A08001210846FFF7D2
:1015D00001F903208DF8160010208DF817001E2049
:1015E000ADF8140005A99148FFF74FF80121080351
:1015F000FFF710F918208DF8170003208DF816005A
:10160000E020ADF8140005A98848FFF73EF8002057
:10161000ADF800004FF48270ADF802000020ADF884
:101620000400ADF80600ADF808004FF40070ADF806
:101630000A000020ADF80C00ADF80E0069467C48A9
:10164000FFF780F901217A48FFF75EF94FF48071C6
:101650007748FFF795F9012210217448FFF7A9F8A0
:10166000002208217148FFF7A4F8012208216F48E1
:10167000FFF79FF847F23050FFF77CFA0121204630
:1016800000F02CF947F23050FFF774FACB212046D6
:1016900000F024F939212046FFF75AFE2C2120467C
:1016A000FFF756FE00212046FFF752FE3421204668
:1016B000FFF74EFE02212046FFF74AFECF212046CB
:1016C00000F00CF900212046FFF742FEC121204620
:1016D000FFF73EFE30212046FFF73AFEE821204684
:1016E00000F0FCF885212046FFF732FE002120465D
:1016F000FFF72EFE78212046FFF72AFEEA2120463A
:1017000000F0ECF800212046FFF722FE00212046E1
:10171000FFF71EFEED21204600F0E0F86421204690
:10172000FFF716FE03212046FFF712FE1221204686
:10173000FFF70EFE81212046FFF70AFEF721204623
:1017400000F0CCF820212046FFF702FEC021204601
:1017500000F0C4F825212046FFF7FAFDC1212046FC
:1017600000F0BCF811212046FFF7F2FDC52120460C
:1017700000F0B4F82B212046FFF7EAFD2B2120468C
:10178000FFF7E6FDC721204600F0A8F88621204695
:10179000FFF7DEFD3621204600F0A0F84821204664
:1017A000FFF7D6FD3A21204600F098F805212046A3
:1017B000FFF7CEFDB121204600F090F80021204631
:1017C000FFF7C6FD18212046FFF7C2FDB6212046CF
:1017D00000F084F808212046FFF7BAFD8221204658
:1017E000FFF7B6FD27212046FFF7B2FD1121204665
:1017F00000F074F82921204600F070F82C212046D2
:1018000000F06CF803212046FFF750FE002120462F
:10181000FFF7D6FD012202210448FEF7CAFF204649
:1018200000F08EF806B010BD000000200008014056
:101830000030014001460148008870470400002044
:1018400070B505460E4614462A21284600F046F893
:1018500031462846FFF792FD21462846FFF78EFDC8
:1018600070BD70B504460D46A58029462046FFF799
:10187000EDFD70BD30B58BB005460C460121084624
:10188000FEF7A8FF134800900194102002904FF437
:101890002070039000200A9007908020059000207F
:1018A0000490089006904FF48050099069460A48C9
:1018B000FEF7CDFE0122022106480C38FFF730F872
:1018C000012202210448FEF7B9FE0D20FFF7EEF9D0
:1018D0000BB030BD0C3001403000024070B5054601
:1018E0000C46012210210B48FEF763FF0022042161
:1018F0000848FEF75EFF002210210648FEF759FF58
:1019000000BF02210448FFF714F80028F9D002486C
:10191000848170BD000801400030014070B505466B
:101920000E4614462B212846FFF7D8FF314628469D
:10193000FFF724FD21462846FFF720FD70BD00007B
:1019400010B586B0044601A8FEF774FF01210220FD
:10195000FEF750FF42F210710198B0FBF1F0401E0B
:101960000D49088042F21070091D08800A481C3891
:10197000008840F0010008491C39088006482838D2
:10198000008840F001000449283908801D20FFF735
:101990008DF906B010BD0000280400402DE9FF4F6E
:1019A00083B0074615469846DDF840903846FEF766
:1019B0000DFC00F0FF0B002648E0BC5D4FF0000A74
:1019C000612C04DB7A2C02DCA4F12000C4B2412C8F
:1019D00008DB5A2C06DCA4F1410000EB40001E4954
:1019E00001EB800A302C08DB392C06DCA4F1160050
:1019F00000EB4000184901EB800A2D2C01D1DFF8E3
:101A00005CA02B2C01D1DFF858A0272C01D1DFF8E6
:101A100054A02E2C01D1DFF850A0BAF1000F0BD04A
:101A20000C2001210FFA88F32AB2CDE901090091B7
:101A30005046049900F0ECF8B9F1000F01D01020E5
:101A400000E00820284485B2701CC6B25E45B4DBB5
:101A500007B0BDE8F08F0000B42500086427000837
:101A6000702700087C2700088827000810B5044666
:101A7000054830F814100548FEF792FE08B9012019
:101A800010BD0020FCE70000A8250008000C014064
:101A900010B5FFF719F90446FFF716F90444FFF7EC
:101AA00013F90444FFF710F90444FFF70DF9044457
:101AB000FFF70AF90444FFF707F90444FFF704F9B4
:101AC0002044C01000B210BD10B5FFF709F904465C
:101AD000FFF706F90444FFF703F90444FFF700F9A0
:101AE0000444FFF7FDF80444FFF7FAF80444FFF755
:101AF000F7F80444FFF7F4F82044C01000B210BD1A
:101B0000014B18607047000014000020012803D129
:101B1000FF21044A117003E00021024A117000BF46
:101B200000BF70470D000020014908707047000099
:101B300010000020F0B5DDE90554264E3678264F1A
:101B40003F88BE4244DA254E3668224F3F7806EB86
:101B5000071630600126214F3F68DFF878C09CF8F7
:101B600000C007EB0C173E731C4E3668194F3F78C8
:101B700006EB0716B180194E3668164F3F7806EB14
:101B80000716F2800CB15E0000E01E46134F3F685E
:101B9000DFF840C09CF800C007EB0C173E810CB189
:101BA0006E0000E02E460D4F3F68DFF828C09CF81D
:101BB00000C007EB0C177E81084E3668054F3F7852
:101BC00006EB0716B473034E3678761C014F3E7051
:101BD000F0BD00000C0000200E00002008000020D6
:101BE000C1F30F12054B1A80054A10600022054B05
:101BF0001A70054A054B1A60704700000E0000205D
:101C0000080000200C000020982500081400002087
:101C10002DE9F041DDE90656089C354F3F78DFF8A5
:101C2000D4C0BCF800C067455FDA334F3F68DFF8C7
:101C3000C0C09CF800C007EB0C1738604FF0020CD6
:101C40002D4F3F68DFF8A88098F8008007EB081751
:101C500087F80CC0284F3F68DFF894C09CF800C09C
:101C600007EB0C17BA80244F3F68DFF884C09CF85C
:101C700000C007EB0C17FB800CB12F0100E0EF0058
:101C8000DFF874C0DCF800C0DFF8648098F80080EA
:101C90000CEB081CACF808700CB1770000E037467C
:101CA000DFF854C0DCF800C0DFF8448098F800800A
:101CB0000CEB081CACF80A700F4F3F68DFF830C01F
:101CC0009CF800C007EB0C1779730B4F3F68DFF8E7
:101CD00020C09CF800C007EB0C17BC73044F3F7882
:101CE0007F1CDFF80CC08CF80070BDE8F0810000AC
:101CF0000C0000200E000020080000202DE9F04319
:101D00000746DDE90756099C0020DFF85CC19CF816
:101D100000C0DFF85881B8F80080C4457EDA082991
:101D200014D006DC01290BD002290BD0042915D1CF
:101D30000AE010290CD020290CD040290ED10BE04C
:101D400000200DE001200BE0022009E0032007E065
:101D5000042005E0052003E0062001E0BDE8F08353
:101D600000BFDFF80CC1DCF800C0DFF8FC8098F899
:101D700000800CEB081CCCF800704FF0030CDFF86F
:101D8000F080D8F80080DFF8E09099F8009008EB38
:101D9000091888F80CC0DFF8D8C0DCF800C0DFF8FC
:101DA000C88098F800800CEB081CACF80420DFF821
:101DB000C0C0DCF800C0DFF8B08098F800800CEB01
:101DC000081CACF8063024B105FA00FC4FEA4C0CB4
:101DD00001E005FA00FCDFF89880D8F80080DFF811
:101DE000889099F8009008EB0918A8F808C024B169
:101DF00006FA00FC4FEA4C0C01E006FA00FC1FFA60
:101E00008CF8DFF86CC0DCF800C0DFF85C9099F863
:101E100000900CEB091CACF80A8000E021E0DFF830
:101E200050C0DCF800C0DFF8408098F800800CEB70
:101E3000081C8CF80E40DFF838C0DCF800C0DFF872
:101E4000288098F800800CEB081C8CF80D00DFF857
:101E500018C09CF800C00CF1010CDFF80C8088F869
:101E600000C000BF7AE700000C0000200E00002038
:101E70000800002000200149087070470C00002075
:101E80002DE9F34F8BB08946FD48007830B1FD480D
:101E900002784FF420714846FEF700FA00201CE259
:101EA000F949096801EB0016B6F906200B998A4238
:101EB00068DCB6F9061072890A440B998A4261DD22
:101EC000B17B09B1012100E000210091009929B105
:101ED000B6F906200B99891A491003E0B6F90620D5
:101EE0000B99891A89B20691B6F90440317B012910
:101EF00004D0022978D0032974D125E1009911B1C9
:101F00003189491000E03189884631680191069A8B
:101F1000019902FB0817009999B3002C18DB31894D
:101F2000C1F5A071A14213DD00250EE0397841B161
:101F30003978D64A126832F811B00BEB0B4149F8E8
:101F40001410A41C7F1C691C0DB24545EEDB49E052
:101F5000002513E0397869B1002C0BDBB4F5A07FC4
:101F600008DA3978C94A126832F811B00BEB0B4124
:101F700049F81410A41C7F1C691C0DB24545E9DB0F
:101F800030E000E0A7E1002C16DB3189C1F5A0713B
:101F9000A14211DD00250CE0397831B13978BB4A16
:101FA000126832F8111029F81410641C7F1C691C87
:101FB0000DB24545F0DB15E0002511E0397859B147
:101FC000002C09DBB4F5A07F06DA3978AF4A126835
:101FD00032F8111029F81410641C7F1C691C0DB212
:101FE0004545EBDB76E1FFE7717BA84A126832F8E2
:101FF00011B0316801910099002954D031894FEA1C
:102000002118069901FB08F10491002C25DB318988
:10201000C1F5A071A14220DD00251BE004994A19F9
:102020000199895C02914FF0000A0EE0802141FA8B
:102030000AF1029A114019B10BEB0B4149F8141047
:10204000A41C0AF101010FFA81FABAF1080FEDDBC5
:10205000691C0DB24545E1DB75E0002520E00499DF
:102060004A190199895C02914FF0000A13E0002C93
:102070000CDBB4F5A07F09DA802141FA0AF1029A5B
:10208000114019B10BEB0B4149F81410A41C0AF1D3
:1020900001010FFA81FABAF1080FE8DB691C0DB2F1
:1020A0004545DCDB4FE031894FEAE108069901FB49
:1020B00008F10491002C23DB3189C1F5A071A14204
:1020C0001EDD002519E004994A190199895C0291E5
:1020D0004FF0000A0CE0802141FA0AF1029A114007
:1020E00009B129F814B0641C0AF101010FFA81FA50
:1020F000BAF1080FEFDB691C0DB24545E3DB22E0C6
:1021000000251EE004994A190199895C02914FF05B
:10211000000A11E0002C0ADBB4F5A07F07DA802169
:1021200041FA0AF1029A114009B129F814B0641C6D
:102130000AF101010FFA81FABAF1080FEADB691C12
:102140000DB24545DEDBC5E0009921B13189727BD6
:102150001141491002E03189727B11410891727B73
:10216000012191401FFA81F8069991FBF8F189B29B
:102170000791069991FBF8F208FB121189B20691BA
:10218000069901FB08F10491DDE90712514303911F
:102190004FF6FF7101EA4801099131680A910099EF
:1021A000F1B30021059143E00A990CC90399595CE8
:1021B00052F8212004995718002C18DB0999C1F511
:1021C000A071A14213DD00250EE0397841B13978C4
:1021D0002E4A126832F811B00BEB0B4149F814107B
:1021E0007F1CA41C691C0DB24545EEDB17E00025E1
:1021F00013E0397869B1002C0BDBB4F5A07F08DA65
:102200003978224A126832F811B00BEB0B4149F8C9
:1022100014107F1CA41C691C0DB24545E9DB00E0CD
:102220000BE00399491C03910599491C09B20591DA
:10223000089A05999142B7DB4BE00021059144E0F3
:102240003268039952F8212004995718002C1FDB9B
:102250000999C1F5A071A1421ADD00250CE0397879
:1022600031B13978094A126832F8111029F814107E
:102270007F1C641C691C0DB24545F0DB1EE00000AC
:10228000100000200D000020080000201400002095
:10229000002511E0397859B1002C09DBB4F5A07F95
:1022A00006DA3978114A126832F8111029F8141038
:1022B0007F1C641C691C0DB24545EBDB0399491C6E
:1022C00003910599491C09B20591089A0599914213
:1022D000B6DB00BF00BF411C88B2054909788842BF
:1022E000FFF6DEAD0DB0BDE8F08F00001400002059
:1022F0000C00002030B58BB004460D460E48006837
:10230000C0B17DB1072007E004F00F0124110B4A92
:10231000525C01AB1A54401E0028F5DA00208DF8FB
:102320000C0003E001A92046FEF7F4FC01A800F030
:1023300007F800BF0BB030BD28000020942700082C
:102340002DE9F04106461C480068002831D030468F
:10235000FDF73CFF282803D23046FDF737FF00E0A9
:102360002820074614480468206813280ED1002549
:102370000AE01148006800F53F70405D202802D057
:1023800000F044F802E06D1C282DF2DB216801EB1F
:10239000810209490968091D01EBC2003A4631462C
:1023A000FDF733FF2068132802D22068401C20600C
:1023B00000BFBDE8F08100002800002030B58DB0DE
:1023C000114805682C681AE004EB84020E48006886
:1023D000001D00EBC201282202A8FDF716FF002015
:1023E0008DF83000009004EB44004FF6FF7101EAD5
:1023F00080030022042102A8FFF7D0FA641E002CFB
:10240000E2DA0DB030BD00002800002010B5002435
:1024100012E0621C02EB82030D4A1268121D02EBED
:10242000C30104EB84030A4A1268121D02EBC300C5
:102430002822FDF7EAFE641C132CEADB2022282167
:102440000348006800F53F70FDF728FF10BD00004D
:102450002800002010B5074908600A6800211160B3
:1024600000BF03E020240B1DC454491CB1F5487F74
:10247000F8DB10BD28000020024803490349016031
:102480007047000018000020D8270008AC2700087B
:1024900008B5FEF787FB002852D02A48FFF78EF8D0
:1024A0002948FFF7D7FF4FF480512848FFF798FBE2
:1024B00027480068007856281ED1254800684078D3
:1024C000452819D1224800688078452814D1204831
:1024D0000068C07858280FD1FEF7A2FD10B1FEF7B2
:1024E0008FFD02E01BA0FFF72BFF04E0FFF766FF64
:1024F0001448FFF701F8F9E7002401251FE06019EF
:1025000004B2C82C01DD4FF0FF35002C00DA0125A4
:102510000020009004F10A0083B20A22042111A0D5
:10252000FFF73CFA0020009004F11A0083B20A225F
:10253000042112A0FFF732FA0248FEF7DDFFDEE7C2
:1025400000BFFEE7180000204405002044150020CD
:1025500020000020556E61626C6520746F206C6FE6
:1025600061640A004E6F2070726F6772616D20693E
:102570006E206D656D6F72790000000055736520E7
:102580007061746368657220746F206C696E6B2073
:1025900070726F6772616D0000000000FFFFE0075E
:1025A0001F0000F85E97939010002000400080000C
:1025B00000010002001E0A0A1212223E42420000DE
:1025C000007C4242427C4242427C0000003C42404D
:1025D00040404040423C0000007C42424242424275
:1025E000427C0000003E4040407C4040407E000075
:1025F000007E4040407C404040400000003E404063
:1026000040404642423E000000424242427E424238
:1026100042420000007C101010101010107C0000CE
:10262000007E020202020202423C000000424448D4
:10263000506050484442000000404040404040400C
:10264000407E0000004266665A5A42424242000002
:102650000042626252524A4A46460000003C4242F0
:1026600042424242423C0000007C4242427C4040A6
:1026700040400000003C4242424242524A3C02007A
:10268000007C4242427C605048460000003C424090
:10269000403C0202423C0000007C10101010101060
:1026A000101000000042424242424242423C0000BE
:1026B00000444444282828101010000000444454CA
:1026C0005454545454280000004444282810282806
:1026D000444400000044442828101010101000004A
:1026E000007E020204081020407E000000003844F2
:1026F0004464544C44380000000010305010101056
:10270000107800000000384404040810207C000009
:10271000000038440404380444380000000008185D
:1027200028487C08083C000000007C4040407804B9
:102730000478000000001C20404078444438000029
:1027400000007C44080810102020000000003844DD
:10275000444438444438000000003844443C0404F5
:10276000443800000000000000007C000000000071
:102770000000000010107C101000000000606020BD
:102780000000000000000000000000000000000049
:1027900060600000303132333435363738396162A9
:1027A0006364656600000000000000000000000097
:1027B0000000000000000000000000000000000019
:1027C0003518000863180008BD150008F914000842
:1027D00000000000000000000000000000000000F9
:1027E00000000000000000000000000000000000E9
:1027F0000000000000000000000000002028000889
:1028000000000020400000002801000860280008A7
:1028100040000020684B0000440100085DFCFFFF01
:1028200000000000000000000000000000000000A8
:102830000100000000000000000000000000000097
:102840000040000800A00008000000000000000098
:102850000102030401020304060708090204060832
:040000050800018D61
:00000001FF
