:020000040800F2
:10000000D04B00208D0100089501000897010008E1
:10001000990100089B0100089D01000800000000F4
:100020000000000000000000000000009F01000828
:10003000A101000800000000A3010008A5010008BC
:10004000A7010008A7010008A7010008A7010008F0
:10005000A7010008A7010008A7010008A7010008E0
:10006000A7010008A7010008A7010008A7010008D0
:10007000A7010008ED050008A7010008A701000876
:10008000A7010008A7010008A7010008A7010008B0
:10009000A7010008A7010008A7010008A7010008A0
:1000A000A7010008A7010008A7010008A701000890
:1000B000CD0A0008ED0A0008150B0008A70100088A
:1000C000A7010008A7010008A7010008A701000870
:1000D000A7010008A7010008A7010008A701000860
:1000E000A7010008A7010008A701000800F002F816
:1000F00000F03CF80AA090E8000C82448344AAF186
:100100000107DA4501D100F031F8AFF2090EBAE883
:100110000F0013F0010F18BFFB1A43F0010318473B
:10012000BC380000DC380000103A24BF78C878C121
:10013000FAD8520724BF30C830C144BF04680C60ED
:10014000704700000023002400250026103A28BF35
:1001500078C1FBD8520728BF30C148BF0B60704739
:100160001FB500F0D3F81FBD10B510BD00F039F970
:100170001146FFF7F5FF03F055FA00F057F903B405
:10018000FFF7F2FF03BC00F05BF90000094880476D
:1001900009480047FEE7FEE7FEE7FEE7FEE7FEE769
:1001A000FEE7FEE7FEE7FEE704480549054A064B81
:1001B000704700006D0A0008ED000008D0450020DF
:1001C000D04B0020D0470020D047002010B5431C62
:1001D00002E010F8011B71B18107FAD14FF0013232
:1001E00002C88C1A8C4314EAC211F9D0C01A0A064C
:1001F00003D0C01E10BDC01A10BD0A0401D0801E5D
:1002000010BD0902FCD0401E10BD032A40F2308010
:1002100010F0030C00F0158011F8013BBCF1020F47
:10022000624498BF11F801CB00F8013B38BF11F8C8
:10023000013BA2F1040298BF00F801CB38BF00F8DF
:10024000013B11F0030300F07380083AC0F008800E
:1002500051F8043B083A51F804CBA0E80810F5E740
:10026000121D5CBF51F8043B40F8043BAFF3008023
:10027000D20724BF11F8013B11F801CB48BF11F898
:10028000012B24BF00F8013B00F801CB48BF00F868
:10029000012B704701B5FFF7B8FF01BD01F0FF0367
:1002A000114601B543EA032242EA024200F00BF88C
:1002B00001BD02F0FF0343EA032242EA024200F0DA
:1002C00002B84FF000020429C0F0128010F0030CB5
:1002D00000F06280CCF1040CBCF1020F18BF00F8F2
:1002E000012BA8BF20F8022BA1EB0C0100F054B8A1
:1002F0005FEAC17C24BF00F8012B00F8012B48BF46
:1003000000F8012B704770477047704770B5064C76
:100310007C44064D7D4403E0206820448047241D32
:10032000AC42F9D170BD0000E8360000E8360000AC
:1003300010B5203AC0F00B80B1E81850203AA0E880
:100340001850B1E81850A0E81850BFF4F5AF5FEAB4
:10035000027C24BFB1E81850A0E8185044BF18C967
:1003600018C0BDE810405FEA827C24BF51F8043B0E
:1003700040F8043B08BF7047D20728BF31F8023B62
:1003800048BF11F8012B28BF20F8023B48BF00F8F6
:10039000012B70474FF0000200B513469446964675
:1003A000203922BFA0E80C50A0E80C50B1F1200188
:1003B000BFF4F7AF090728BFA0E80C5048BF0CC036
:1003C0005DF804EB890028BF40F8042B08BF704794
:1003D00048BF20F8022B11F0804F18BF00F8012B06
:1003E0007047754600F032F8AE4605006946534640
:1003F00020F00700854618B020B5FFF7D5FEBDE810
:1004000020404FF000064FF000074FF000084FF07B
:10041000000B21F00701AC46ACE8C009ACE8C0090C
:10042000ACE8C009ACE8C0098D46704710B5044679
:10043000AFF300802046BDE81040FFF7A0BE0000EB
:1004400001491820ABBEFEE72600020000487047B5
:100450006C450020704721B1426842F480624260DE
:1004600003E0426822F480624260704721B18268F2
:1004700042F00102826003E0826822F001028260A1
:1004800070470A460021816821F4E04111438160F0
:100490007047014600208A6802F004020AB1012078
:1004A00000E00020704708B502460020009000924E
:1004B00001F12800009B184400900098006880B269
:1004C00008BD014600208A6802F008020AB1012036
:1004D00000E000207047000030B5024600200023F5
:1004E00050680F4C20400D790C6844EA05242043E5
:1004F000506090680B4C2040D1E902542C434D7958
:1005000044EA450420439060D06A20F470000C7CDB
:10051000641EE4B2234340EA0350D06230BD0000C1
:10052000FFFEF0FFFDF7F1FFF0B504461546002091
:1005300000220026092911DDE068A1F10A0707EB76
:10054000470C072707FA0CF29043A1F10A0707EBC3
:10055000470703FA07F21043E0600CE0206901EB63
:10056000410C072707FA0CF2904301EB410703FA0D
:1005700007F210432061A06BC0F30156EF1C06F197
:10058000010CA7EB0C0707EB870C1F2707FA0CF2EF
:100590009043EF1C06F1010CA7EB0C0707EB870754
:1005A00001FA07F21043A063F0BD10B50A4600211E
:1005B0000023816B21F44011531E41EA03518163F2
:1005C00010BD816841F008018160704721B18268E7
:1005D00042F40212826003E0826822F40212826016
:1005E0007047816841F004018160704710B50122B5
:1005F0000221074800F0DEF80021064800F01CF850
:100600004FF4007000F00AF801200349087010BD93
:1006100000080140300002400000002000F080513E
:1006200011B10349086001E00249486070470000C9
:10063000040402400000024021B1026842F00102BD
:10064000026004E002684FF6FE731A4002607047D1
:100650001AB103680B43036002E003688B43036035
:10066000704710B50022026847F6F0739A430C6A8F
:100670008B6823430C6923434C6923438C692343D0
:10068000CC6923434C6A23438C6A23431A43026098
:10069000CB6843600B6883604B68C36010BD2DE975
:1006A000F0410246002500260020002300240027F8
:1006B00091F803C00CF00F0591F803C00CF0100C7A
:1006C000BCF1000F03D091F802C04CEA050591F887
:1006D00000C0BCF1000F31D0146800202BE04FF0B7
:1006E000010C0CFA00F3B1F800C00CEA03069E42BC
:1006F00020D183004FF00F0C0CFA03F7BC4305FA2E
:1007000003FC4CEA040491F803C0BCF1280F06D1A5
:100710004FF0010C0CFA00FCC2F814C00AE091F88A
:1007200003C0BCF1480F05D14FF0010C0CFA00FCDE
:10073000C2F810C0401C0828D1D31460B1F800C022
:10074000BCF1FF0F34DD546800202EE000F1080CEE
:100750004FF0010808FA0CF3B1F800C00CEA0306E8
:100760009E4221D183004FF00F0C0CFA03F7BC43DB
:1007700005FA03FC4CEA040491F803C0BCF1280F0D
:1007800005D100F1080C08FA0CF8C2F8148091F8B1
:1007900003C0BCF1480F07D100F1080C4FF001086D
:1007A00008FA0CF8C2F81080401C0828CED3546018
:1007B000BDE8F0810AB1016100E0416170470000CD
:1007C00001460020034A506820F44040084350602E
:1007D000704700000010024029B1064A52690243E6
:1007E000044B5A6104E0034A52698243014B5A6147
:1007F000704700000010024029B1064AD269024346
:10080000044BDA6104E0034AD2698243014BDA61A6
:10081000704700000010024029B1064A9269024365
:10082000044B9A6104E0034A92698243014B9A6146
:10083000704700000010024030B500210022002463
:1008400000232D4D6D6805F00C0121B1042905D060
:10085000082923D105E0294D056022E0274D0560D8
:100860001FE0254D6D6805F47012234D6D6805F489
:100870008034022505EB92421CB9214D5543056099
:100880000BE01D4D6D6805F400351DB11C4D554341
:10089000056002E0194D5543056002E0174D056003
:1008A00000BF00BF144D6D6805F0F0010909154D3A
:1008B0006B5C0568DD4045600F4D6D6805F4E061D7
:1008C000090A104D6B5C4568DD4085600A4D6D6816
:1008D00005F46051C90A0B4D6B5C4568DD40C5608D
:1008E000054D6D6805F44041890B074D6B5CC5688B
:1008F000B5FBF3F5056130BD0010024000127A002F
:1009000000093D00540000206400002021B102884D
:1009100042F04002028004E002884FF6BF731A40A2
:10092000028070471AB183880B43838002E083887A
:100930008B43838070470246002013890B400BB124
:10094000012000E00020704710B50022028802F468
:1009500041520B884C8823438C882343CC88234303
:100960000C8923434C8923438C892343CC8923431B
:100970001A430280838B4FF2FF74234083830B8AD8
:10098000038210BD10B500F001F810BD0CB50020B9
:10099000019000903348006840F48030314908608D
:1009A00000BF3048006800F4003000900198401CFF
:1009B0000190009818B90198B0F5A06FF1D12948BD
:1009C000006800F4003010B10120009001E0002028
:1009D00000900098012843D12348006840F010009F
:1009E000214908600846006820F0030008600846B6
:1009F000006840F0020008601A48406819494860E1
:100A00000846406848600846406840F48060486096
:100A10000846406820F47C1048600846406840F46E
:100A2000641048600846006840F08070086000BFAD
:100A30000C48006800F000700028F9D009484068B0
:100A400020F00300074948600846406840F0020073
:100A5000486000BF0348406800F00C000828F9D146
:100A60000CBD0000001002400020024010B51348E9
:100A7000006840F0010011490860084640681049CC
:100A800008400E494860084600680E4908400B4976
:100A900008600846006820F4802008600846406826
:100AA00020F4FE0048604FF41F008860FFF76AFFE3
:100AB0004FF000600449086010BD000000100240C3
:100AC0000000FFF8FFFFF6FE08ED00E04FF0804069
:100AD000008A20F001004FF080410882024800683F
:100AE000401C014908607047180000200648008833
:100AF00020F0010004490880044800880449088067
:100B000000200249088070471004004002000020C5
:100B1000040000200448008820F0010002490880F9
:100B200001200249087070471008004006000020AC
:100B300070B588B006460C460E480068B8B1002370
:100B40001A4601A9304600F07FF90546681C10B925
:100B5000002008B070BD6560002060812081019890
:100B600060610020A0617220A0740120F1E70020E4
:100B7000EFE700003000002001460B480068425CAF
:100B800009480368481C185C02EB00220648036809
:100B9000881C185C02EB004203480368C81C185C00
:100BA00002EB0060704700003000002010B50B0E13
:100BB000094A1468C21CA354C1F30743064A1468C7
:100BC000821CA354C1F30723034A1468421CA35494
:100BD000014B1B68195410BD300000200020014952
:100BE00008607047180000202DE9F04395B080465A
:100BF0000E466848006800287ED04046FFF7E6FAB7
:100C0000401E00EB080400E0641E444505D0207837
:100C10002F2802D020780028F6D120782F2800D164
:100C2000641C2046FFF7D2FA18B9002015B0BDE8C1
:100C3000F083A4EB0800402801DB0020F6E7A4EBDA
:100C4000080241460AA8FFF7E0FA0020A4EB0801D9
:100C50000AAA50542022082113A8FFF72AFB2022B9
:100C6000032112A8FFF725FB00250AE0605D10B103
:100C7000605D2E2800D106E0605D13A94855681C10
:100C8000C5B2082DF2DB00BF2046FFF79FFAC5B2C0
:100C900001E0681EC5B2002D02DD605D2E28F8D18E
:100CA000605D2E2818D1681CC5B22046FFF78EFA69
:100CB000401B00F0FF09B9F1030F05DA61194A463C
:100CC00012A8FFF7A2FA06E060190188ADF84810F3
:100CD00080788DF84A0000BF01AB02AA03A9404604
:100CE00000F0B2F80746781CA8B900231A4603A9F9
:100CF0000AA800F0A9F800E049E00746781C08B906
:100D0000002093E701AA02A9384600F0ADFC00F0EC
:100D100033FC074607E0384600F0FEFC6FF07041F8
:100D2000384600F077FC029800F044F91948006852
:100D300001990844139901601499416015480168AC
:100D4000019808300844BDF8481001809DF84A1009
:100D5000817039B201981A3001F0E0FA3914019823
:100D6000143001F0DBFA029800F0C8FA08B900204C
:100D70005CE7376077600298F0600198308200206D
:100D80003081708170617720B07401204EE70020BF
:100D90004CE700003000002002461078562815D19C
:100DA0005078452812D1907845280FD1D07858280E
:100DB0000CD1D2E904301844884203D8D068B0F589
:100DC000804F01D9002070470120FCE70020FAE79E
:100DD00010B502460B46002119E00E48006940F0AC
:100DE00002000C4C2061501860612046006940F000
:100DF0004000206100BF00F01DF80028FBD005482E
:100E0000006920F00200034C206101F580619942E5
:100E1000E3D310BD0020024000BF011EA0F101007D
:100E2000FBD1704710B5024801F034FB10BD000043
:100E30001C0000200348C06800F0010080F00100A1
:100E400070470000002002402DE9FF4F8DB005469D
:100E500088460026701E009052480068002871D015
:100E600028782F2806D150480068009001264F4866
:100E7000D0F800A083E04FF0000909E0A85D05A9C3
:100E800001F80900701C06B209F101000FFA80F99F
:100E9000A85D10B1A85D2F28F0D1002005A901F8A8
:100EA000090005A8FFF792F9002867D00027002461
:100EB00049E00AEB070000F07DF83A480068005D61
:100EC000E52828D037480068005D052823D035483C
:100ED0000068005D2E281ED03248016804F10B0026
:100EE000085C0F2817D02F490968081901A900F0DC
:100EF00028FC05A901A800F078FC60B104F11A00F3
:100F000001F0FEF9834604F1140001F0F9F90BEB4E
:100F10000040009018E02034B4F5007F13D3002483
:100F20007F1C2348007887420DD30027009800F0EB
:100F300057FB00906FF070410098884203D1601E0B
:100F4000009001E020E0B4E700BFA85D2F2806D1A3
:100F500001E0701C06B2A85D2F28FAD00AE0A85D57
:100F600040B9B8F1000F05D004F11C00FFF704FEF2
:100F7000C8F8000000208DF8140000E003E0A85D30
:100F800000287FF478AF00BF0F9818B10AEB070173
:100F90000F980160109808B110980460009811B083
:100FA000BDE8F08F300000204C00002050000020F1
:100FB0003C00002070B5054600261E480068002849
:100FC00035D01D480068854201D1012070BD2AE05E
:100FD0001A48FFF721FF00242946112000F03CF9B0
:100FE00000B120E006E02046641C1549884200DD7F
:100FF00000E000BF00F09CFFFE28F4D1002405E0D3
:1010000000F096FF0B4909680855641CB4F5007F91
:10101000F6DB00F08DFF00F08BFF00F089FF064843
:1010200005600120D2E73046761C0828D0DB00207E
:10103000CCE700003000002038000020400D030005
:10104000FEFF0F0000B591B001210420FFF7E4FB83
:1010500001210820FFF7E0FB01211020FFF7DCFB56
:1010600001214802FFF7D8FB01218802FFF7D4FBDA
:101070004FF44040FFF7A4FB03208DF842004820C6
:101080008DF843004FF47C70ADF8400010A967481C
:10109000FFF705FB00200B9001208DF830008DF844
:1010A00031004FF460200D9000200E9002208DF84A
:1010B0003C000BA95E48FFF70FFA02215C48FFF7DE
:1010C00074FA01231A4608215948FFF72DFA012323
:1010D000022209215648FFF727FA4FF4E04154480D
:1010E000FFF7CFF901215248FFF7C0F95048FFF749
:1010F00068FA00BF4E48FFF7E4F90028FAD14C48DF
:10110000FFF76FFA00BF4A48FFF7C3F90028FAD18A
:1011100001214748FFF79FF901214548FFF756FA9B
:1011200006A8FFF789FB01210846FFF765FB42F29D
:1011300010710698B0FBF1F0401E890608850A2060
:1011400088854007808940F0010088810846008832
:1011500040F0010008801C20002809DB00F01F027D
:10116000012191404209920002F1E022C2F80011EF
:1011700000BF01210803FFF74FFB01218803FFF7A0
:101180003BFB18208DF84300E020ADF8400010A98B
:101190002848FFF784FA0020ADF804004FF482706D
:1011A000ADF806000020ADF80800ADF80A00ADF873
:1011B0000C004FF40070ADF80E000020ADF81000E8
:1011C000ADF8120001A91C48FFF7BEFB01211A4827
:1011D000FFF79CFB10208DF843000002ADF84000A3
:1011E00010A91248FFF75BFA18208DF843004FF45E
:1011F0002040ADF8400010A90C48FFF750FA4820F5
:101200008DF843004FF48040ADF8400010A9074826
:10121000FFF745FA01A90948FFF796FB01210748A6
:10122000FFF774FB012011B000BD0000000C01406D
:101230000024014000080140003001400038004017
:1012400002480349486003484860704723016745E6
:1012500000200240AB89EFCD70B502460B46002658
:101260002548007820B9112A01D0182A00D15B0244
:1012700042F0400000F062FE180E00F05FFEC3F383
:10128000074000F05BFEC3F3072000F057FED8B222
:1012900000F054FE082A01D1872100E0952108467C
:1012A00000F04CFE07E03046711C8EB24FF6FE7126
:1012B000884200DD04E000F03BFE0446FF28F2D047
:1012C00000BFA4B93A2A12D100F032FE054605F05B
:1012D000400018B101200849087002E000200649CA
:1012E000087000F025FE00F023FE00F021FE00F063
:1012F0001FFE204670BD00003400002070B505467A
:101300002148006800283CD0002635E01F48FFF740
:1013100083FD002429461820FFF79EFF00B12BE033
:1013200000F006FEFE2000F009FE002405E016494C
:101330000968085D00F002FE641CB4F5007FF6DB6E
:10134000002000F0FBFD002000F0F8FD002406E086
:101350002046641C0E49884200DD00E000BF00F01A
:10136000E7FD0528F4D1002400E000BF00F0E0FD17
:101370000028FAD1012070BD3046761C0828C5DB54
:1013800000BF0020F7E7000030000020400D030000
:10139000FEFF0F0000B589B04FF440410B480068D4
:1013A000FFF7FAFC80B101A909A0FFF71DFC4FF47B
:1013B00040420648016801A800F034FD01A800F091
:1013C0001BFD012009B000BD0020FBE72400002028
:1013D0002F64656275672E766578000070B50546E6
:1013E000284600F0BBF806464FF400710748006835
:1013F000FEF767FF002403E03019FFF77FFF641C4E
:10140000034800788442F7DB70BD00003000002004
:101410003C0000202DE9F0470746884614461E464A
:10142000A8F10108B8F10D0F02DA0020BDE8F0873D
:1014300047480068002877D02068401C0028FAD070
:1014400082E0E588E0882030E080E088B0F5007F29
:101450000EDB0020E080A088401CA080A0883D49D1
:101460000978884204DB4FF0FF3020600020DDE780
:10147000206800F073F8A18800EB010A5046FFF7DE
:1014800099FD33480068405D48B131480068405DCF
:10149000202804D02E480068405DFF2800D153E08A
:1014A0002B480068405DE52800D14DE028480168E0
:1014B00005F10B00085C0F2845D02549096848193B
:1014C000394600F03EF93846FEF780FE00F0FF098D
:1014D00005F11C00FFF750FB306005F1140000F02F
:1014E0000FFF30830020307405F10B0000F000FF87
:1014F00000F0020018B1307C40F00100307405F1BA
:101500000B0000F0F5FE00F0040018B1307C40F054
:1015100003003074A9F10301C8190FA100F065F9A7
:1015200018B1012070740CE00FE005F10B0000F021
:10153000DFFE00F0100010B10220707401E0002006
:101540007074012072E700BF7BE700206EE70000A7
:10155000300000203C000020564558000146881EFF
:10156000034A1278034B1B6800FB023070470000EF
:101570003C0000205000002070B51148056800268E
:1015800000241BE02846FFF715FD2046FFF7F4FA7C
:1015900068B96FF070412046FFF708FB2846FFF757
:1015A000ADFE10B94FF0FF3070BD3046FCE7761C41
:1015B000241DB4F5007F01D36D1C0024E2E7000078
:1015C00044000020002809DB00F01F0201219140A7
:1015D0004209920002F1E022C2F8001170470000B7
:1015E00070B504462046E11704EB5161CD11E117B7
:1015F00004EB5161C911A4EBC1118E0004490968C3
:101600004819FFF7D7FC3046FFF7B6FA70BD000067
:10161000440000202DE9F04104460E462046E11723
:1016200004EB5161CD11E11704EB5161C911A4EB39
:10163000C1118F00074909684819FFF7BBFC314603
:101640003846FFF7B3FA034909684819FFF756FE11
:10165000BDE8F08144000020024908680021014AE9
:1016600011607047180000202DE9F04781460E46B2
:1016700017464846FFF772FF80460025002427E002
:1016800008EB0500FFF796FC15480068005D20B1E7
:1016900013480068005DE52800D11AE02034B4F555
:1016A000007F15DB6D1C00240E48007885420FDB9F
:1016B0000025FFF761FF82465046FFF78FFE514637
:1016C0004846FFF7A7FF6FF070415046FFF7A2FFB3
:1016D000D6E700BF08EB050030603C60BDE8F0874E
:1016E000300000203C00002010B514210348FEF714
:1016F000DAFEA0F5006000B210BD00000024014039
:1017000010B518210348FEF7CEFEA0F5006000B228
:1017100010BD00000024014070B505460EE02846CB
:10172000FFF75EFF044600212846FFF773FF6FF0C6
:101730007040844200D004B901E02546EFE700BFC5
:1017400070BD10B50246002302E0D45CCC545B1C93
:10175000082BFADB082005E0431ED8B20B5C202BD7
:1017600000D001E00028F7DC00BF431CD8B2137A98
:10177000202B1AD02E230B54431CD8B2002306E092
:1017800003F10804145D0C54441CE0B25B1C032BF1
:10179000F6DB05E0431ED8B20B5C202B00D001E045
:1017A0000028F7DC00BF431CD8B200230B5410BD47
:1017B000024605E0107808B901207047521C491C08
:1017C00010780B789842F5D00020F6E770B5044603
:1017D0000D462946204600F049FC20B100F09CFB54
:1017E00008B1012070BD0020FCE710B502460B4691
:1017F00005E0107808B9012010BD521C5B1C107860
:1018000000F0B6FB0446187800F0B2FB8442F0D03A
:101810000020F1E72DE9F04104460D46271E00DACD
:101820006442002600BF0A2094FBF0F100FB114047
:101830003030C2B23046761C2A540A2094FBF0F0B5
:10184000041EF0DC002F03DA2D223046761C2A54C9
:101850000020A855284600F04BFBBDE8F08170B58C
:1018600005460C462046FEF7B1FC02280CD920782C
:10187000632809D160782E2806D1A11C2846FFF7DD
:1018800097FF08B1012070BD0020FCE72DE9F04171
:1018900004460D46174626480068002846D0A07C1E
:1018A000722843D16068FFF759FE80462E4635E026
:1018B000D4E90510884200D334E0A069401CA0613F
:1018C000218901EB0800FFF775FB60891849096859
:1018D000085C3070761C6089401C60816089B0F5BE
:1018E000007F1BDB002060812089401C2081208933
:1018F00010490978884211DB002020816068FFF7D9
:101900006FFE60606FF070416068884202DB00200B
:10191000606107E06068FFF721FE8046381EA7F18E
:101920000107C5D100BF701BBDE8F0810020FBE7B7
:10193000300000203C000020F0B5022700240025E4
:1019400002E000F0F5FA6D1C282DFAD34FF080501C
:101950002749086005E02046641C402801D9012081
:10196000F0BD00210846FFF777FC0128F3D100F015
:10197000DFFA00F0DDFA002405E02046641CFE28B2
:1019800001D9012706E04FF4D5710820FFF764FC68
:101990000128F2D100BF002400BF00213720FFF74B
:1019A0005BFC06464FF080412920FFF755FC0646B8
:1019B000641C4FF6FE70844201D90120D0E7002E4E
:1019C000EBD1002400200B490870022F0ED106E055
:1019D0002046641C40F6FE71884200D905E00021D3
:1019E0003A20FFF739FC0028F2D100BF0020B7E70A
:1019F000100C01403400002010B50446214670A0B0
:101A0000FFF72DFF08B1724810BD214671A0FFF706
:101A100026FF08B17348F7E7214673A0FFF71FFFC1
:101A200008B17648F0E7214675A0FFF718FF08B126
:101A30007748E9E7214677A0FFF711FF08B17B4817
:101A4000E2E721467AA0FFF70AFF08B17E48DBE70C
:101A500021467EA0FFF703FF08B18248D4E7214664
:101A600081A0FFF7FCFE08B18348CDE7214683A0A3
:101A7000FFF7F5FE08B18348C6E7214682A0FFF7CD
:101A8000EEFE08B18248BFE7214682A0FFF7E7FEDD
:101A900008B18248B8E7214681A0FFF7E0FE08B10F
:101AA0008248B1E7214682A0FFF7D9FE08B18348FA
:101AB000AAE7214682A0FFF7D2FE08B18348A3E738
:101AC000214683A0FFF7CBFE08B184489CE721465E
:101AD00083A0FFF7C4FE08B1834895E7214683A0A1
:101AE000FFF7BDFE08B184488EE7214683A0FFF7CB
:101AF000B6FE08B1854887E7214685A0FFF7AFFE0F
:101B000008B1864880E7214685A0FFF7A8FE08B106
:101B1000864879E7214686A0FFF7A1FE08B18648EE
:101B200072E7214685A0FFF79AFE08B185486BE76A
:101B3000214685A0FFF793FE08B1854864E721465A
:101B400084A0FFF78CFE08B185485DE7214685A09B
:101B5000FFF785FE08B1884856E7214687A0FFF7C2
:101B60007EFE08B188484FE7214688A0FFF777FE40
:101B700008B1884848E7214687A0FFF770FE08B102
:101B8000874841E7214687A0FFF769FE08B18748EB
:101B90003AE7214686A0FFF762FE08B1864833E7A0
:101BA000214686A0FFF75BFE08B186482CE7214658
:101BB00085A0FFF754FE08B1854825E7002023E7FC
:101BC000645365744C696E65436C65617200000016
:101BD000412B00086453657446696C6C436F6C6FED
:101BE00072000000252B00086453657453707269FD
:101BF00074654D656D6F727900000000512C00080E
:101C000064446973706C6179537072697465000023
:101C10004D2B000864446973706C6179537072696C
:101C200074654269744D61736B0000000D2E0008ED
:101C300064446973706C6179537072697465427938
:101C400074654D61736B0000452F0008644469732F
:101C5000706C61795370726974654D6174726978E2
:101C600000000000812C000864446973706C617985
:101C70005465787400000000C52900086453796E2B
:101C800063000000250E0008644765744650530049
:101C9000D51D00086453657446505300E51D0008C7
:101CA0006453657450616C6574746500192B000889
:101CB000694765745374617465000000C52A0008A3
:101CC000694765745841786973000000E52A000887
:101CD000694765745941786973000000FF2A00085C
:101CE0006673496E69740000891F00086673526547
:101CF0006164446972000000B9220008667352658D
:101D000061644E65787446696C65000015140008BE
:101D100066735265616446696C650000310B0008AA
:101D20006673577269746546696C6500E90B000853
:101D300066735265616400008D18000866735772FF
:101D400069746500251E00086673436C6F73650037
:101D5000F91D00087447657454696D6572000000D0
:101D6000612000087447657454696D657257697421
:101D700068436C65617200005916000874436C6515
:101D8000617254696D657200DD0B000868436D7007
:101D900000000000B11700086849746F610000007E
:101DA000151800086D656D73657400009D020008CC
:101DB0006D656D6370790000950200087374726C34
:101DC000656E0000CD0100087352756E00000000C2
:101DD000CD17000810B5024800F040FD10BD00000E
:101DE0001C00002010B504462146024800F04DFDBD
:101DF00010BD00001C00002010B50446A07C772810
:101E00000CD1E068FFF7D6F840B1228A02F11C003D
:101E10006169FEF7CBFEE068FFF770FA6520A074F9
:101E2000012010BD2DE9F04704460D469146264895
:101E30000068002846D0A07C772843D12E466068F1
:101E4000FFF78CFB074631E02189C819FFF7B2F88C
:101E5000307861891C4A12685054761C6089401C95
:101E600060816069401C60616089B0F5007F1DDBA6
:101E70002189C819FFF742FA002060812089401C9F
:101E8000208120891149097888420FDB00202081B8
:101E9000FFF772FB804641466068FFF7BBFBC4F862
:101EA00004804046FFF75AFB074600BFB9F1000027
:101EB000A9F10109C8D12189C819FFF71FFA701BC0
:101EC000BDE8F0870020FBE7300000203C00002048
:101ED00038B5044600200A231A4604210090204603
:101EE00000F070FD014800F0D5FA38BD1C0000205C
:101EF0002DE9F041044600252046FEF767F9461E0D
:101F000005E0675DA05D6055A7556D1C761EB54266
:101F1000F7D3BDE8F081000070B504480068441CA8
:101F20002646B0470546284670BD00002C0000201C
:101F300000B5FF2000F002F800BD0000014600BF20
:101F40000A48008800F002000028F9D00748001D68
:101F5000018000BF0548008800F001000028F9D08A
:101F60000248001D0088C0B27047000008380040D9
:101F70000146612904DB7A2902DCA1F1200000E09E
:101F80000846C0B27047000070B50546FFF7D4FCA4
:101F90002A4908700846007800284DD12848056075
:101FA0000020FFF707F808B9002070BD4FF4FF705C
:101FB00000F0A6F94AF65521884201D00020F4E746
:101FC0004FF4E37000F09CF904462046FEF7F2FF60
:101FD00008B90020E9E70D2000F08AF919490870D6
:101FE0000C2000F085F9184908702420FEF7C4FD84
:101FF000164908600E2000F083F920441449086057
:1020000008460068114909680F4A127801FB02006E
:10201000104908602C20FEF7AFFD0F490860084604
:102020000068801E074909780A4A126800FB0120EF
:102030000A4908600120B8E70020B6E73500002013
:10204000300000203C0000203D0000204000002027
:1020500044000020480000204C00002050000020D8
:102060000148006870470000180000202DE9F34F78
:102070009BB00D4613A91B98FEF75AFD002872D09D
:102080001C220CA913A8FFF701FC4FF440410CA837
:10209000FEF782FE0028F2D0FFF7D2F84FF440415D
:1020A0006C480068FEF794FE6A491098096800EBD6
:1020B0000108CCE008220AA913A8FFF7E7FB9DF866
:1020C000280000287DD003287CD004287BD0062857
:1020D0007AD10020019094E0102206A913A8FFF7FE
:1020E000D5FBDDE907010144099801EB0019DDF892
:1020F00024A04A46294613A8FFF7C8FB002673E030
:10210000079828440899084400EB0614A088012881
:1021100006D0022859D003285CD0042860D100E002
:1021200000BFE079012803D000201DB0BDE8F08F8A
:10213000A07901283ED1A088012806D14549E06850
:102140000968084400F1010B0EE007982844A168D3
:10215000084402900298FFF74FFC8346BBF1000F42
:1021600002D10020E1E773E03A4906980968084483
:102170002168084405900598ABEB0000001FC0F3F0
:102180001607380B0490C7F34A0003902068285ABA
:1021900000F478410498084400B22168685220682D
:1021A000801C285A00F478410398084401B2206842
:1021B000801C2952A07918B9E06840442168685011
:1021C00010E039E030E022E03EE0E0684044216881
:1021D000685007E02049E06808442168685001E041
:1021E0000020A2E700BF761C564589D3194BDDE9D4
:1021F00006021B68C118284600F032F80198401CFE
:1022000001900B99019881423FF666AF1EE00B9852
:1022100048B1294613A80B9AFFF738FB41462846D8
:102220000B9A00F01DF811E00B9820B10A4913A891
:102230000B9AFFF72BFB09E006491298096808443E
:1022400006490860012070E700206EE700BF31E713
:1022500000206AE7240000206C0500202C000020EC
:1022600030B5044615461348006940F00100114A94
:102270001061002315E000BFFEF7DCFD0028FBD055
:10228000E2580A8000BFFEF7D5FD0028FBD0891C6C
:10229000120C0A8000BFFEF7CDFD0028FBD0891C80
:1022A0001B1DAB42E7D30348006920F00100014A3F
:1022B000106130BD0020024070B506460C460B4848
:1022C000006880B100231A4619463046FEF7BCFD6F
:1022D0000546681C08B9002070BD25600020A0805C
:1022E000E0800120F8E70020F6E700003000002041
:1022F000014602480068405C704700003000002042
:10230000014605480068425C03480368481C185CA5
:1023100002EB002080B270473000002010B5C1F3FE
:102320000723044A1468421CA354024B1B68195427
:1023300010BD00003000002070B505460C4601229B
:1023400004210648FEF736FA00BF02210448FEF7D2
:10235000F2FA0028F9D00248848170BD00080140DB
:102360000030014070B505460C46012204210C489E
:10237000FEF720FA00BF02210A48FEF7DCFA002827
:10238000F9D020120749888100BF02210548FEF7D5
:10239000D2FA0028F9D0E0B20249888170BD00006D
:1023A000000801400030014070B505460E464FF46C
:1023B000A0720021284600F057FAF022002128469A
:1023C00000F0C0FA2C21284600F09CFA01220421DA
:1023D0001448FEF7EFF9002210211248FEF7EAF93F
:1023E000002005E00021104A22F81010411C88B29C
:1023F000B0F5A07FF6DB002411E000200B49087047
:102400000949284600F04AFA01210948FEF714F963
:1024100000BF064800780028FBD0601C84B2F02C76
:10242000EBDB70BD000801406800002000000020C8
:102430003000024030B585B005460C466846FEF7D0
:10244000FBF901210420FEF7D7F942F21071009840
:10245000B0FBF1F0401E0E49088042F2107090FB74
:10246000F4F0091D08800A481C38008840F001007B
:1024700007491C39088006482838008840F00100C8
:102480000349283908801E20FFF79CF805B030BDAD
:102490002808004070B505462C21284600F032FA85
:1024A000012204211F48FEF785F9002210211D4852
:1024B000FEF780F91C4E3146002000F0E7FD0124B4
:1024C0001CE00020194908703146284600F0E6F962
:1024D00001211748FEF7B0F81348864201D115488C
:1024E00000E011480646314620B200F0CFFD00BFA3
:1024F0000E4800780028FBD0601C84B2F02CE0DD90
:1025000000F0BEFD0C480088401C0B49088000BF4D
:10251000A88818B1094800780028F9D00020074998
:10252000087070BD00080140680000200000002015
:1025300030000240EA0200200200002006000020D5
:1025400038B504460020C3490870A0800121084620
:10255000FEF742F903208DF8020010208DF80300E9
:102560001E20ADF800006946BB48FEF798F801222E
:102570001021B948FEF71EF900220821B648FEF7DF
:1025800019F901220821B448FEF714F947F2305036
:10259000FEF742FC0121204600F0B4F947F230502A
:1025A000FEF73AFCCB21204600F0ACF93921204659
:1025B000FFF7C2FE2C212046FFF7BEFE0021204679
:1025C000FFF7BAFE34212046FFF7B6FE022120466F
:1025D000FFF7B2FECF21204600F094F900212046FB
:1025E000FFF7AAFEC1212046FFF7A6FE30212046B4
:1025F000FFF7A2FEE821204600F084F9852120465D
:10260000FFF79AFE00212046FFF796FE782120462C
:10261000FFF792FEEA21204600F074F900212046DF
:10262000FFF78AFE00212046FFF786FEED212046B7
:1026300000F068F964212046FFF77EFE0321204662
:10264000FFF77AFE12212046FFF776FE8121204611
:10265000FFF772FEF721204600F054F920212046B2
:10266000FFF76AFEC021204600F04CF925212046E4
:10267000FFF762FEC121204600F044F910212046F8
:10268000FFF75AFEC521204600F03CF93E212046C6
:10269000FFF752FE28212046FFF74EFEC7212046B5
:1026A00000F030F986212046FFF746FE362120460D
:1026B00000F028F948212046FFF73EFE3A21204647
:1026C00000F020F955212046FFF736FEB1212046C3
:1026D00000F018F900212046FFF72EFE18212046B1
:1026E000FFF72AFEB621204600F00CF9082120460B
:1026F000FFF722FE82212046FFF71EFE27212046FB
:10270000FFF71AFE1121204600F0FCF8292120468F
:1027100000F0F8F8F221204600F0F4F800212046FD
:10272000FFF70AFE2621204600F0ECF801212046A2
:10273000FFF702FEE021204600F0E4F80F212046DA
:10274000FFF7FAFD31212046FFF7F6FD2B21204649
:10275000FFF7F2FD0C212046FFF7EEFD0E2120468B
:10276000FFF7EAFD08212046FFF7E6FD4E2120464F
:10277000FFF7E2FDF1212046FFF7DEFD372120467D
:10278000FFF7DAFD07212046FFF7D6FD102120468E
:10279000FFF7D2FD03212046FFF7CEFD0E21204694
:1027A000FFF7CAFD09212046FFF7C6FD002120469C
:1027B000FFF7C2FDE121204600F0A4F800212046E9
:1027C000FFF7BAFD0E212046FFF7B6FD1421204683
:1027D000FFF7B2FD03212046FFF7AEFD1121204691
:1027E000FFF7AAFD07212046FFF7A6FD312120466D
:1027F000FFF7A2FDC1212046FFF79EFD482120469C
:10280000FFF79AFD08212046FFF796FD0F2120468D
:10281000FFF792FD0C212046FFF78EFD3121204667
:10282000FFF78AFD36212046FFF786FD0F2120465F
:10283000FFF782FD3621204600F064F8E8212046AB
:10284000FFF77AFD00212046FFF7AEFD204600F09D
:102850008BF838BD00000020000801400146014807
:10286000008870470400002070B505460E461446E7
:102870002A21284600F046F831462846FFF772FD27
:1028800021462846FFF76EFD70BD70B504460D4623
:10289000A58029462046FFF7CDFD70BD30B58BB031
:1028A00005460C4601210846FDF796FF13480090A7
:1028B0000194102002904FF42070039000200A90A1
:1028C00007908020059000200490089006904FF417
:1028D0008050099069460A48FDF7C3FE0122022193
:1028E00006480C38FEF71EF8012202210448FDF7C5
:1028F000AFFE0D20FEF766FE0BB030BD0C30014080
:102900003000024070B505460C46012210210B48EC
:10291000FDF750FF002204210848FDF74BFF00227D
:1029200010210648FDF746FF00BF02210448FEF7CC
:1029300002F80028F9D00248848170BD00080140E7
:102940000030014070B505460E4614462B2128463E
:10295000FFF7D8FF31462846FFF704FD21462846F9
:10296000FFF700FD70BD000010B586B0044601A859
:10297000FDF762FF01210220FDF73EFF42F21071D8
:102980000198B0FBF1F0401E0D49088042F2107032
:10299000091D08800A481C38008840F001000849D9
:1029A0001C39088006482838008840F00100044996
:1029B000283908801D20FEF705FE06B010BD000076
:1029C000280400402DE9FF4F85B00746154698467C
:1029D000DDF848903846FDF7F9FB8346002659E0BC
:1029E000BC5D4FF0000A612C04DB7A2C02DCA4F100
:1029F0002000C4B2412C08DB5A2C06DCA4F14100B3
:102A000000EB4000264901EB800A302C08DB392C12
:102A100006DCA4F1160000EB4000214901EB800A1E
:102A20002D2C01D1DFF87CA02B2C01D1DFF878A070
:102A3000272C01D1DFF874A02E2C01D1DFF870A073
:102A40002C2C01D1DFF86CA05F2C01D1DFF868A03D
:102A50007E2C01D1DFF864A02F2C01D1DFF860A01B
:102A6000BAF1000F0DD000200C2101220FFA88F3DB
:102A7000CDE90209CDE900212AB25046069900F0BD
:102A8000C5F9B9F1000F01D0102000E0082028445A
:102A900085B2761C5E45A3DB09B0BDE8F08F00006F
:102AA0009437000844390008503900085C390008A0
:102AB0006839000874390008803900088C3900082A
:102AC00098390008014605480068054A32F8112087
:102AD000104008B9012070470020FCE7080C0140B5
:102AE0008837000870B50024002503E0FEF7FCFDE0
:102AF00004446D1C082DF9DBE01000B270BD70B508
:102B00000024002503E0FEF7FBFD04446D1C082DA6
:102B1000F9DBE01000B270BD0149086070470000A9
:102B200014000020012803D1FF21044A117003E0A2
:102B30000021024A117000BF00BF70470D00002045
:102B40000149087070470000100000202DE9F04195
:102B5000DDE90656089C3B4F3F78DFF8ECC0BCF837
:102B600000C067456CDA394F3F68DFF8D8C09CF881
:102B700000C007EB0C1738600127DFF8D0C0DCF885
:102B800000C0DFF8C08098F800800CEB081C8CF8BF
:102B90000C702E4F3F68DFF8ACC09CF800C007EB0C
:102BA0000C17B980294F3F68DFF898C09CF800C027
:102BB00007EB0C17FA800CB15F0000E01F46DFF84E
:102BC0008CC0DCF800C0DFF87C8098F800800CEB4B
:102BD000081CACF808700CB16F0000E02F461FFA1B
:102BE00087FC1A4F3F68DFF85C8098F8008007EB9D
:102BF0000817A7F80AC0154F3F68DFF848C09CF8CF
:102C000000C007EB0C17BC73104F3F68DFF834C0EF
:102C10009CF800C007EB0C17FE734FF0000C0B4F35
:102C20003F68DFF8208098F8008007EB081787F8E6
:102C30000DC0044F3F787F1CDFF808C08CF800708F
:102C4000BDE8F0810C0000200E00002008000020EC
:102C5000C1F30F12054B1A80054A10600022054B84
:102C60001A70054A054B1A60704700000E000020DC
:102C7000080000200C000020743700081400002019
:102C80002DE9F0470746DDE9096C089D0B9C002003
:102C9000DFF86C8198F80080DFF86891B9F800904F
:102CA000C8457CDA082914D006DC01290BD002299A
:102CB0000BD0042915D10AE010290CD020290CD002
:102CC00040290ED10BE000200DE001200BE0022096
:102CD00009E0032007E0042005E0052003E00620CA
:102CE00001E0BDE8F08700BFDFF81C81D8F8008064
:102CF000DFF80C9199F8009008EB0918C8F80070FB
:102D00004FF00408DFF80091D9F80090DFF8F0A048
:102D10009AF800A009EB0A1989F80C80DFF8E8801E
:102D2000D8F80080DFF8D89099F8009008EB0918DF
:102D3000A8F80420DFF8D080D8F80080DFF8C09031
:102D400099F8009008EB0918A8F8063024B105FAA4
:102D500000F84FEA480801E005FA00F8DFF8A8900B
:102D6000D9F80090DFF898A09AF800A009EB0A19AA
:102D7000A9F8088024B106FA00F84FEA480801E0F3
:102D800006FA00F8DFF88090D9F80090DFF870A01C
:102D90009AF800A009EB0A19A9F80A8000E02DE0D2
:102DA000DFF86480D8F80080DFF8549099F800903C
:102DB00008EB091888F80E40DFF84C80D8F800803E
:102DC000DFF83C9099F8009008EB091888F80FC0DC
:102DD000DFF83480D8F80080DFF8249099F800906C
:102DE00008EB091888F80D00DFF8148098F80080C7
:102DF00008F10108DFF8089089F8008000BF70E74B
:102E00000C0000200E000020080000202DE9F043F7
:102E100007ADE0CD0A9CDFF820C19CF800C0DFF8C8
:102E20001C81B8F80080C4457DDADFF814C1DCF8F5
:102E300000C0DFF8048198F800800CEB081CCCF887
:102E400000004FF0020CDFF8F880D8F80080DFF8BF
:102E5000E89099F8009008EB091888F80CC0DFF8A2
:102E6000E0C0DCF800C0DFF8D08098F800800CEB00
:102E7000081CACF80420DFF8C8C0DCF800C0DFF89C
:102E8000B88098F800800CEB081CACF8063014B140
:102E90004FEA051C01E04FEAC50CDFF8A480D8F822
:102EA0000080DFF8949099F8009008EB0918A8F8D2
:102EB00008C014B14FEA460C00E0B446DFF8808049
:102EC000D8F80080DFF8709099F8009008EB0918A6
:102ED000A8F80AC0DFF868C0DCF800C0DFF8588046
:102EE00098F800800CEB081C8CF80D10DFF850C02F
:102EF000DCF800C0DFF8408098F800800CEB081C7C
:102F00008CF80E40DFF838C0DCF800C0DFF828800D
:102F100098F800800CEB081C8CF80F70DFF818C0D4
:102F20009CF800C000E005E00CF1010CDFF808801F
:102F300088F800C0BDE8F0830C0000200E000020DF
:102F4000080000202DE9F04307ADE0CD0A9CDFF832
:102F500024C19CF800C0DFF82081B8F80080C44587
:102F60007EDADFF818C1DCF800C0DFF8088198F8D5
:102F700000800CEB081CCCF800004FF0030CDFF8CD
:102F8000FC80D8F80080DFF8EC9099F8009008EB0E
:102F9000091888F80CC0DFF8E4C0DCF800C0DFF8DE
:102FA000D48098F800800CEB081CACF80420DFF803
:102FB000CCC0DCF800C0DFF8BC8098F800800CEBD7
:102FC000081CACF8063014B14FEA450C00E0AC46E2
:102FD000DFF8A880D8F80080DFF8989099F8009082
:102FE00008EB0918A8F808C014B14FEA460C00E035
:102FF000B4461FFA8CF8DFF884C0DCF800C0DFF8B4
:10300000749099F800900CEB091CACF80A80DFF87A
:103010006CC0DCF800C0DFF85C8098F800800CEB36
:10302000081C8CF80E40DFF854C0DCF800C0DFF854
:10303000448098F800800CEB081C8CF80F70DFF8C7
:103040003CC0DCF800C0DFF82C8098F800800CEB66
:10305000081C8CF80D10DFF81CC09CF800C000E0C4
:1030600005E00CF1010CDFF80C8088F800C0BDE829
:10307000F08300000C0000200E000020080000205B
:1030800000200149087070470C0000202DE9F34F23
:103090008DB08946F948007830B1F94802784FF48C
:1030A00020714846FDF705F90020A3E2F5490968BB
:1030B00001EB0015B5F906200D998A427CDCB5F9C3
:1030C00006106A890A440D998A4275DDA97B09B107
:1030D000012100E000210191E97B01F0010191B1A2
:1030E000019941B16A89B5F906300D99C91A511A89
:1030F000491E491013E06A89B5F906300D99C91ABD
:10310000511A491E0BE0019929B1B5F906200D9914
:10311000891A491003E0B5F906200D99891A08911A
:10312000E97B01F0020111B14FF0FF3100E0012114
:10313000C9B20491B5F90440297B012906D00229BE
:1031400070D003296FD004296ED19FE1019911B18C
:103150002989491000E02989884629680291E97B7C
:1031600001F0020131B1089901FB0881491E029A60
:10317000114403E0089A029902FB08110F460199D5
:10318000A1B3002C19DB2989C1F5A071A14214DD7E
:1031900000260EE0397841B13978BB4A126832F81E
:1031A000111001EB014149F81410A41C04990F44BB
:1031B000761C4645EEDB4CE01BE2002613E0397836
:1031C00069B1002C0BDBB4F5A07F08DA3978AE4A80
:1031D000126832F8111001EB014149F81410A41CD7
:1031E00004990F44761C4645E9DB32E0FFE7002CEA
:1031F00016DB2989C1F5A071A14211DD00260CE082
:10320000397831B13978A04A126832F8111029F8AA
:103210001410641C04990F44761C4645F0DB18E03A
:10322000002614E016E0B9E0E2E1397859B1002C4B
:1032300009DBB4F5A07F06DA3978934A126832F8D0
:10324000111029F81410641C04990F44761C46458B
:10325000EBDBCDE1697B8C4A126832F811B029684A
:1032600002910199A9B329894FEA2118089901FB14
:1032700008F10691002C22DB2989C1F5A071A14239
:103280001DDD002618E006998A190299895C0391D0
:103290004FF0000A0CE0802141FA0AF1039A114034
:1032A00019B10BEB0B4149F81410A41C0AF1010AE7
:1032B000BAF1080FEFDB761C4645E4DB6DE0002633
:1032C0001EE006998A190299895C03914FF0000A61
:1032D00012E018E0002C0CDBB4F5A07F09DA8021A5
:1032E00041FA0AF1039A114019B10BEB0B4149F86D
:1032F0001410A41C0AF1010ABAF1080FEADB761CCB
:103300004645DEDB49E029894FEAE108089901FBDF
:1033100008F10691002C20DB2989C1F5A071A1429A
:103320001BDD002616E006998A190299895C039133
:103330004FF0000A0AE0802141FA0AF1039A114095
:1033400009B129F814B0641C0AF1010ABAF1080F96
:10335000F1DB761C4645E6DB1FE000261BE0069904
:103360008A190299895C03914FF0000A0FE0002C42
:103370000ADBB4F5A07F07DA802141FA0AF1039A4B
:10338000114009B129F814B0641C0AF1010ABAF11C
:10339000080FECDB761C4645E1DB29E1019911B110
:1033A0002989491000E02989884629680291E97B2A
:1033B00001F0020131B1089901FB0881491E029A0E
:1033C000114403E0029A089901FB08210F46697B2A
:1033D0002D4A126832F811B0019949B3002C13DB61
:1033E0002989C1F5A071A1420EDD002609E03978D6
:1033F00019B10BEB0B4149F81410A41C04990F44AC
:10340000761C4645F3DB38E000260EE0397841B102
:10341000002C06DBB4F5A07F03DA0BEB0B4149F877
:103420001410A41C04990F44761C4645EEDB24E0DE
:10343000002C11DB2989C1F5A071A1420CDD002609
:1034400007E0397809B129F814B0641C04990F44D5
:10345000761C4645F5DB10E000260CE0397831B1EA
:10346000002C04DBB4F5A07F01DA29F814B0641C49
:1034700004990F44761C4645F0DBB9E010000020AB
:103480000D0000200800002014000020019921B147
:1034900029896A7B1141491002E029896A7B11411F
:1034A0000A916A7B012101FA02F8089991FBF8F16F
:1034B0000991089991FBF8F208FB121108910899FB
:1034C00001FB08F10691DDE90912514305914FEA2C
:1034D00048010B9129680C910199E9B300210791EA
:1034E00040E00C990CC90599595C52F821200699C5
:1034F0005718002C17DB0B99C1F5A071A14212DD02
:1035000000260DE0397841B139783E4A126832F828
:1035100011B00BEB0B4149F814107F1CA41C761C56
:103520004645EFDB16E0002612E0397869B1002C41
:103530000BDBB4F5A07F08DA3978324A126832F82A
:1035400011B00BEB0B4149F814107F1CA41C761C26
:103550004645EADB059900E009E0491C0591079919
:10356000491C07910A9A07999142BADB3FE0002172
:10357000079138E02A68059952F8212006995718D2
:10358000002C15DB0B99C1F5A071A14210DD0026BE
:103590000BE0397831B139781A4A126832F81110D3
:1035A00029F814107F1C641C761C4645F1DB14E0DE
:1035B000002610E0397859B1002C09DBB4F5A07F62
:1035C00006DA39780F4A126832F8111029F8141007
:1035D0007F1C641C761C4645ECDB0599491C059153
:1035E0000799491C07910A9A07999142C2DB00BFCB
:1035F00000BF401C044909788842FFF657AD0FB060
:10360000BDE8F08F140000200C00002002480349A0
:1036100003490160704700001C000020C839000801
:10362000AC39000808B5FDF70DFD002855D02C4831
:10363000FEF786FF4FF480512A48FFF709FB2A481E
:10364000FEF7A2FC0546002D43D028A0FEF740FC63
:1036500075B1FDF79FFE58B1284929A0FEF706FD78
:1036600010B1FEF759FC37E028A0FEF731FC33E03B
:103670003DB1224929A0FEF7F9FC10B1FEF74CFC40
:103680002AE01E211648FFF700F9002401261FE05A
:10369000A01904B2A02C01DD4FF0FF36002C00DA97
:1036A00001260020009004F10A0083B20A220421BE
:1036B0001EA0FFF787F90020009004F11A0083B2E2
:1036C0000A22042121A0FFF77DF90548FEF7E2FE5A
:1036D000DEE725A0FEF7FCFB00BF00BFFEE7000011
:1036E0001C0000206C0D00206C25002053746172BA
:1036F00074696E67202E2E2E000000006C290020B9
:103700002F64656275672E76657800004465627582
:1037100067206661696C6564000000002F61757444
:103720006F72756E2E766578000000004E6F207007
:10373000726F6772616D2C20706C656173652C20EF
:1037400072656164206D616E75616C005468616EB4
:103750006B20796F7520666F72207573696E6720B4
:1037600056697265796500004E6F2053442063618D
:103770007264000000000000FFFFE0071F0000F877
:103780008C51FFE05E979390100020004000800075
:1037900000010002001E0A0A1212223E42420000EC
:1037A000007C4242427C4242427C0000003C42405B
:1037B00040404040423C0000007C42424242424283
:1037C000427C0000003E4040407C4040407E000083
:1037D000007E4040407C404040400000003E404071
:1037E00040404642423E000000424242427E424247
:1037F00042420000007C101010101010107C0000DD
:10380000007E020202020202423C000000424448E2
:10381000506050484442000000404040404040401A
:10382000407E0000004266665A5A42424242000010
:103830000042626252524A4A46460000003C4242FE
:1038400042424242423C0000007C4242427C4040B4
:1038500040400000003C4242424242524A3C020088
:10386000007C4242427C605048460000003C42409E
:10387000403C0202423C0000007C1010101010106E
:10388000101000000042424242424242423C0000CC
:1038900000444444282828101010000000444454D8
:1038A0005454545454280000004444282810282814
:1038B0004444000000444428281010101010000058
:1038C000007E020204081020407E00000000384400
:1038D0004464544C44380000000010305010101064
:1038E000107800000000384404040810207C000018
:1038F000000038440404380444380000000008186C
:1039000028487C08083C000000007C4040407804C7
:103910000478000000001C20404078444438000037
:1039200000007C44080810102020000000003844EB
:10393000444438444438000000003844443C040403
:10394000443800000000000000007C00000000007F
:103950000000000010107C101000000000606020CB
:103960000000000000000000000000000000000057
:1039700060600000000000000000000060602000A7
:1039800000000000000000007E7E0000000000003B
:1039900000207A5E040000000404080810102020B3
:1039A0004040000000000000000000000000000097
:1039B0005D2800088B280008412500089524000890
:1039C00000000000000000000000000000000000F7
:1039D000000000000000000000000000003A0008A5
:1039E000000000206800000028010008683A000874
:1039F00068000020684B00004401000811FCFFFF34
:103A000000000000000000000000000000000000B6
:103A100001000000000000000000000000000000A5
:103A2000000000000040000800A0000800000000A6
:103A30000000000000000000FFFFFFFF000000008A
:103A40000000000000000000000000000000000076
:103A50000000000000000000010203040102030452
:083A600006070809020406082C
:040000050800018D61
:00000001FF
